:020000040800F2
:1000000078100020CD01000829030008250300080E
:100010002703000877020008490A000800000000D2
:100020000000000000000000000000005D07000864
:100030007902000800000000F3060008210800080B
:10004000E7010008E7010008E7010008E7010008F0
:10005000E7010008E7010008E7010008E7010008E0
:10006000E7010008E7010008E7010008E7010008D0
:10007000E7010008E7010008E7010008E7010008C0
:10008000E7010008E7010008E7010008E7010008B0
:10009000E7010008E7010008E7010008E7010008A0
:1000A000E7010008E7010008E7010008E701000890
:1000B000E7010008E7010008E7010008E701000880
:1000C000E7010008E7010008E7010008E701000870
:1000D000E7010008E508000849090008950900083B
:1000E000E7010008E7010008E7010008E701000850
:1000F000E7010008E7010008E7010008E701000840
:10010000E7010008E7010008E7010008E70100082F
:10011000E7010008E7010008E7010008750800088A
:10012000E7010008E7010008E7010008E70100080F
:1001300000F002F800F03AF80AA090E8000C8244BF
:100140008344AAF10107DA4501D100F02FF8AFF29C
:10015000090EBAE80F0013F0010F18BFFB1A43F0A5
:100160000103184790110000B0110000103A24BF9D
:1001700078C878C1FAD8520724BF30C830C144BF0C
:1001800004680C607047000000230024002500264E
:10019000103A28BF78C1FBD8520728BF30C148BFEA
:1001A0000B6070471FB51FBD10B510BD00F038F8CB
:1001B0001146FFF7F7FF00F067FC00F056F803B4B4
:1001C000FFF7F2FF03BC00F040FC00000948804745
:1001D00009480047FEE7FEE7FEE7FEE7FEE7FEE729
:1001E000FEE7FEE7FEE7FEE704480549054A064B41
:1001F000704700002508000831010008780A002037
:1002000078100020780C0020780C00207047704790
:10021000704770477047000000487047180A002078
:100220007546FFF7F9FFAE4605006946534620F0D4
:100230000700854618B020B5FFF7D6FFBDE820407F
:100240004FF000064FF000074FF000084FF0000B92
:1002500021F00701AC46ACE8C009ACE8C009ACE845
:10026000C009ACE8C0098D4670470446AFF3008072
:100270002046FFF7A4FFFEE77047F0B5CC780022D8
:1002800004F00F03E40601D58C7823430C784FF07B
:100290000F0C14F0FF0F4FF0010E1BD005680E88F5
:1002A0000EFA02F42640A64210D196000CFA06F788
:1002B00025EA070703FA06F5CE783D43282E02D03B
:1002C000482E02D002E0446100E00461521C082A7A
:1002D000E5D305600A88FF2A1CD94468002202F190
:1002E00008060EFA06F50E882E40AE420ED1960094
:1002F0000CFA06F7BC4303FA06F7CE783C43282EE7
:1003000000D14561CE78482E00D10561521C082AE3
:10031000E5D34460F0BD016170470AB101617047E7
:1003200041617047FEE7FEE770470000024908435D
:1003300002490860704700000000FA050CED00E07B
:1003400010B50021074C0A46002004EBC1131A54D3
:10035000401CC0B28028FAD3491CC9B20829F3D383
:1003600010BD000050050020F0B57F2828D83F2997
:1003700026D88418802C02D9C0F18002D2B2CC18C1
:10038000402C02D9C1F14003DBB20E4E4FF0010EFA
:10039000871801EB030C11E001F007020EFA02F5D9
:1003A000CA08044606EBC21204E0135DAB431355C2
:1003B000641CE4B2A742F8D8491CC9B28C45EBD8FA
:1003C000F0BD00005005002038B500214FF47A72CE
:1003D0000020401C9042FCD3491C9142F8D30121DB
:1003E000082000F0AFF914208DF8030003208DF8E9
:1003F000020080200A4CADF8000069462046FFF755
:100400003CFF6115ADF8001069462046FFF735FF47
:10041000012000F035F9012000F03AF938BD000064
:10042000000C014070B500240546802626FA04F031
:10043000284000D0012000F02BF9012000F020F925
:10044000002000F01DF9641CE4B2082CEED301205A
:1004500000F016F9BDE87040002000F011B910B5A9
:10046000012000F015F9012000F00AF9002000F049
:100470000FF9BDE81040002000F002B910B50020CF
:1004800000F006F9012000F0FBF8BDE81040012063
:1004900000F0FEB810B5FFF797FFAE2000F000F9AE
:1004A000D52000F0FDF8802000F0FAF8A82000F038
:1004B000F7F83F2000F0F4F8D32000F0F1F8002026
:1004C00000F0EEF8402000F0EBF8A12000F0E8F892
:1004D000C82000F0E5F8DA2000F0E2F8122000F081
:1004E000DFF8812000F0DCF8CF2000F0D9F8D92027
:1004F00000F0D6F8F12000F0D3F8DB2000F0D0F8BF
:10050000302000F0CDF8A42000F0CAF8A62000F0BA
:10051000C7F88D2000F0C4F8142000F0C1F8AF2017
:1005200000F0BEF8FFF70CFFBDE8104000F094B8F3
:1005300010B50C4640F0B00000F0B2F8102040EAD0
:10054000141000F0ADF804F00F00BDE8104000F00A
:10055000A7B8000008B5082B0DD0062B0AD10A4B0E
:1005600002EB420203EB4202C03A00920823062249
:1005700000F00EF808BD054B03EB0212A2F5007265
:10058000102300920822F3E7B8100008C80A0008F8
:100590002DE9F04F1C4690468A4683467F2840D876
:1005A000BAF13F0F3DD851465846FFF7DDFE641EB5
:1005B000E017002104EB507001220AF0070702EB5C
:1005C000E00E2CE0002026E00BEB00027F2A24D86E
:1005D00001EBDA04072C24D8099E01FB08F9064434
:1005E000114B19F8065003EBC413BD4013F802C0B9
:1005F000641C4CEA050C03F802C0072C09D81A4405
:1006000019F8064012F8803FC7F10805EC40234373
:100610001370401CC0B24045D6D3491CC9B28E45A8
:10062000D0DCBDE8F08F0000500500202DE9F0413E
:100630001D46164688460746002408E004FB057060
:10064000C0B22B464146FFF785FF641CE4B2325D21
:10065000002AF3D1BDE8F08170B5084D00240021D7
:100660002046FFF765FF05EBC410802100F029F854
:10067000641CE4B2082CF2D370BD000050050020C9
:10068000024680210148FFF748BE0000000C0140EF
:1006900002464FF400710148FFF73FBE000C0140D5
:1006A00010B50446FFF7DBFE7820FFF7BBFE002005
:1006B000FFF7B8FE2046FFF7B5FEBDE81040FFF794
:1006C000DDBE70B50D460646FFF7C9FE7820FFF780
:1006D000A9FE4020FFF7A6FE002404E0305DFFF7EE
:1006E000A1FE641CE4B2AC42F8D3BDE87040FFF751
:1006F000C5BE704740210148FFF70DBE000801400C
:1007000008B50121042000F011F84020ADF80000E8
:1007100010208DF8030003208DF80200694602487E
:10072000FFF7ABFD08BD000000080140044A0029A6
:10073000D16901D0014300E08143D16170470000DD
:1007400000100240044A0029916901D0014300E0F1
:100750008143916170470000001002407047000023
:100760000CB50022264800920192016841F48031C4
:1007700001604FF4A063016801F400310191009918
:10078000491C0091019911B900999942F3D101686E
:10079000890333D5012101911A490A6842F01002F8
:1007A0000A600A6822F003020A600A6842F0020244
:1007B0000A604168416041684160416841F480617C
:1007C0004160416821F47C114160416841F4E811C5
:1007D0004160016841F08071016001688901FCD5C8
:1007E000416821F003014160416841F0020141602C
:1007F0004168C1F381010229FAD10CBD01920CBDFF
:1008000000100240002002404FF0E0210428086957
:1008100003D020F004000861704740F00400FAE7BC
:10082000704700000F4810B5016841F001010160F8
:1008300041680D4A1140416001680C4A1140016055
:10084000016821F480210160416821F4FE014160CA
:100850004FF41F018160FFF783FF05494FF00060EF
:10086000086010BD001002400000FFF8FFFFF6FE18
:1008700008ED00E010B50B4C0121204600F023F8F4
:1008800000280ED00848018841F400410180012170
:10089000204600F00BF82046BDE81040002100F093
:1008A00008B810BD0014004016000020C9430182A2
:1008B00070470029018802D041F0010101E021F0D8
:1008C00001010180704702460020138A92890B4281
:1008D00002EA010202D0002A00D001207047818480
:1008E0007047000070B5154C40F22551204600F0CD
:1008F00088F800280ED0204600F0A2F8104AC1B2B5
:100900001088030406D444044FF0000306D50A29D6
:1009100001D0138070BD40F400400DE00D2909D0D6
:10092000C0F30D04074D401C80B229551080C72824
:10093000EFD870BD40F48040108070BD0038014099
:100940001C0000205009002010B50F4C40F225512A
:10095000204600F056F8002815D0204600F070F828
:100960000A4A0B4B507011785854491CC8B2107089
:10097000185C4B2801D1002010702046BDE81040C3
:10098000202100F03BB810BD0044004014000020BE
:10099000D004002070B5154C40F22551204600F0DF
:1009A00030F800281CD0204600F04AF8104CC5B2A0
:1009B0006088000414D46088B0F5167F11D20D4E03
:1009C00000213046FFF78BFF608818B901213046BF
:1009D000FFF76FFF608808490144401C60800D707C
:1009E00070BD608840F40040608070BD00480040E9
:1009F000140000200014004020000020C9430180A2
:100A0000704770B501F01F0501260024C1F34213A1
:100A100006FA05F2012B0FD0022B0FD0838A4FEA82
:100A200011210088134206FA01F600EA060001D0FF
:100A300000B10124204670BD8389F0E7038AEEE708
:100A40008088C0F308007047FEE7704710B56FF06C
:100A50000400FFF7D9FE094809490068B0FBF1F02E
:100A60000849C0B200EB40020870C2EBC0104FF65C
:100A7000FF7202EAC000488010BD000000000020A4
:100A800000127A0018000020FFF73AFEFFF732FE4E
:100A9000FFF7DCFF4FF4A060FFF748FC01210807D7
:100AA000FFF744FEFFF7F6FC062304A20121002015
:100AB000FFF7BCFDFFF7D0FDF6E700004C6F6E6757
:100AC00069747564653A00000000000000000000D1
:100AD0000000000000000000000000F8000000001E
:100AE000000000333000000000160E00160E00005B
:100AF000000000000000000040C07840C0784000C6
:100B0000043F04043F040400007088FC0830000027
:100B1000001820FF211E0000F008F000E01800007F
:100B200000211C031E211E0000F008887000000038
:100B30001E21232419272110000000160E0000009A
:100B40000000000000000000000000E018040200A7
:100B5000000000071820400000020418E000000018
:100B60000040201807000000404080F08040400016
:100B70000202010F01020200000000F0000000006C
:100B80000101011F01010100000000000000000040
:100B900000B0700000000000000000000000000035
:100BA000000101010101010100000000000000003E
:100BB00000303000000000000000000080601804D9
:100BC000006018060100000000E010080810E000B6
:100BD000000F102020100F00001010F8000000007F
:100BE0000020203F202000000070080808887000C6
:100BF0000030282422213000003008888848300046
:100C00000018202020110E000000C02010F8000065
:100C100000070424243F240000F8088888080800FE
:100C20000019212020110E0000E010888818000013
:100C3000000F112020110E0000380808C8380800E5
:100C40000000003F00000000007088080888700065
:100C5000001C222121221C0000E010080810E000E6
:100C60000000312222110F00000000C0C00000006F
:100C70000000003030000000000000C0C000000094
:100C8000000080B0700000000000804020100800CC
:100C90000001020408102000404040404040400055
:100CA0000404040404040400000810204080000030
:100CB0000020100804020100007048080808F00035
:100CC0000000003036010000C030C828E810E00005
:100CD0000718272423140B000000C038E000000090
:100CE000203C23020227382008F8888888700000FA
:100CF000203F202020110E00C030080808083800CE
:100D0000071820202010080008F808080810E00044
:100D1000203F202020100F0008F88888E8081000E5
:100D2000203F20202320180008F88888E8081000B9
:100D3000203F200003000000C030080808380000F1
:100D400007182020221E020008F808000008F808F2
:100D5000203F210101213F20000808F80808000079
:100D60000020203F2020000000000808F8080800AC
:100D7000C08080807F00000008F888C02818080024
:100D8000203F20012638200008F80800000000005D
:100D9000203F20202020300008F8F800F8F8080054
:100DA000203F003F003F200008F830C00008F8084E
:100DB000203F200007183F00E01008080810E0005E
:100DC0000F10202020100F0008F808080808F00075
:100DD000203F210101010000E01008080810E00098
:100DE0000F18242438504F0008F88888888870002D
:100DF000203F2000030C30200070880808083800CD
:100E00000038202121221C00180808F808081800C2
:100E10000000203F2000000008F808000008F80843
:100E2000001F202020201F000878880000C83808F4
:100E3000000007380E010000F80800F80008F8006C
:100E4000033C0700073C0300081868808068180806
:100E500020302C03032C30200838C800C838080084
:100E60000000203F2000000010080808C8380800D3
:100E70002038262120201800000000FE0202020077
:100E80000000007F40404000000C30C00000000027
:100E9000000000010638C00000020202FE0000004F
:100EA000004040407F00000000201008040810208F
:100EB0000000000000000000000000000000000032
:100EC0008080808080808080000204080000000014
:100ED0000000000000000000000080808080000012
:100EE0000019242222223F2008F800808000000000
:100EF000003F112020110E000000008080800000C3
:100F0000000E112020201100000000808088F800D1
:100F1000000E112020103F20000080808080000003
:100F2000001F222222221300008080F08888881867
:100F30000020203F20200000000080808080800072
:100F4000006B94949493600008F800808080000007
:100F5000203F210000203F200080989800000000E2
:100F60000020203F20200000000000809898000012
:100F700000C08080807F000008F800008080800032
:100F8000203F24022D302000000808F80000000057
:100F90000020203F20200000808080808080800012
:100FA000203F20003F20003F008080008080000024
:100FB00000203F2100203F20000080808080000032
:100FC000001F202020201F00808000808000000063
:100FD00080FFA12020110E00000000808080800092
:100FE000000E112020A0FF80808080008080800083
:100FF00020203F21200001000000808080808000B0
:101000000033242424241900008080E08080000024
:101010000000001F20200000808000000080800071
:10102000001F202020103F208080800000808080D2
:1010300000010E3008060100808000800080808062
:101040000F300C030C300F00008080008080800087
:101050000020312E0E3120008080800000808080B2
:1010600080818E7018060100008080808080800062
:101070000021302C2221300000000000807C020280
:1010800000000000003F404000000000FF000000A2
:1010900000000000FF0000000002027C8000000051
:1010A0000040403F00000000008040408000008081
:1010B000000000000001010000000000000000002E
:1010C000002F000000000700070000147F147F14A9
:1010D00000242A7F2A12002313086462003649552F
:1010E000225000000007000000001C224100000008
:1010F00041221C000014083E08140008083E08089D
:10110000000000A0600000080808080800006060F7
:101110000000002010080402003E5149453E000036
:10112000427F4000004261514946002141454B3118
:10113000001814127F10002745454539003C4A49E4
:101140004930000171090503003649494936000656
:101150004949291E000036360000000056360000BE
:101160000008142241000014141414140000412239
:101170001408000201510906003E4955592E007C11
:101180001211127C007F49494936003E41414122FB
:10119000007F4141221C007F49494941007F0909E4
:1011A0000901003E4149497A007F0808087F000094
:1011B000417F4100002040413F01007F081422414F
:1011C000007F40404040007F020C027F007F040807
:1011D000107F003E4141413E007F09090906003E63
:1011E0004151215E007F091929460046494949318C
:1011F0000001017F0101003F4040403F001F2040AF
:10120000201F003F4038403F00631408146300076C
:101210000870080700615149454300007F414100C3
:10122000000204081020000041417F000004020178
:101230000204004040404040000001020400002041
:1012400054545478007F484444380038444444207F
:1012500000384444487F00385454541800087E092C
:1012600001020018A4A4A47C007F080404780000F4
:10127000447D4000004080847D00007F10284400B1
:101280000000417F4000007C04180478007C0804C2
:10129000047800384444443800FC242424180018FE
:1012A000242418FC007C08040408004854545420EA
:1012B00000043F444020003C4040207C001C204073
:1012C000201C003C4030403C004428102844001CB6
:1012D000A0A0A07C004464544C440000087F41005E
:1012E0000000007F00000000417F080000080408A3
:1012F0001008000014130008000000202000000067
:101300006C01000834130008200000205810000071
:101310008801000800A24A0400000000000000004C
:101320000102030406070809000000000000000095
:0413300000000000B9
:0400000508000131BD
:00000001FF
