:020000040800F2
:10000000A80B0020450100084136000839360008D9
:100010003D360008F50B0008E93B00080000000031
:100020000000000000000000000000006D36000825
:10003000350C0008000000005B0100085D010008AD
:100040005F0100085F0100085F0100085F01000810
:100050005F0100085F0100085F0100085F01000800
:100060005F0100085F0100085F010008F90B00084C
:100070005F0100085F0100085F0100085F010008E0
:100080005F0100085F0100085F0100085F010008D0
:100090005F0100085F0100085F0100085F010008C0
:1000A0005F010008713600085F0100085F01000869
:1000B000813600085F0100085F0100085F01000849
:1000C0005F0100085F0100085F0100085F01000890
:1000D0005F010008C53B00085F0100085F010008E0
:1000E0005F0100085F0100085F0100085F01000870
:1000F0005F0100085F0100085F0100085F01000860
:100100005F0100085F0100085F0100085F0100084F
:100110005F0100085F0100085F0100085F0100083F
:100120005F0100085F0100085F0100085F0100082F
:10013000DFF80CD000F0A2FC00480047615B00082B
:10014000A80B00200648804706480047FEE7FEE768
:10015000FEE7FEE7FEE7FEE7FEE7FEE7FEE7FEE777
:100160006F36000831010008D2B201E000F8012B1F
:10017000491EFBD270470022F6E710B513460A4627
:1001800004461946FFF7F0FF204610BDF0B480EAA0
:100190000102D40F4200B2EB410F02D202460846E0
:1001A00011464A0042D0C30DDDB2C1F3C752AD1AA9
:1001B000202D35DAC1F3160141F4000204B1524298
:1001C000C5F1200602FA06F12A411044B3EBD05FD4
:1001D00023D0C4B1012DA0EBC35009DCF0BC4FF01B
:1001E000004202EAC352DBB200F5000000F05BBB44
:1001F000400000F1807000EBC350A0F1807040EA35
:10020000D170490009E0490841EAC071A0EBC35030
:1002100000F50000400800EBC350F0BC00F03ABB12
:100220006142012202EB4101001BF6E7F0BC70477E
:1002300081F00041AAE780F00040A7E780EA0102D0
:1002400010B502F00043400022D04A001FD0010E3A
:1002500001EB1261C0F35600C2F3560240F40000F5
:1002600042F40002A0FB022000047F39140400D0F5
:10027000401C50EA124001D44000491EC2B20C0694
:1002800004EBD010401C4008802A02D003E000207C
:1002900010BD20F00100002900DA0020184310BD35
:1002A00030B480EA010202F0004530F0004221F053
:1002B000004013D090B1C30DD40DC2F31601C0F3AA
:1002C0001600E41A41F4000140F400027D3491422A
:1002D00001D3641C00E04900002C02DA30BC00208D
:1002E00070474FF400000023914201D3891A034361
:1002F00040084FEA4101F7D151B1914202D14FF08C
:10030000004105E002D24FF0010101E06FF0010170
:1003100003EBC450284430BC00F0BCBA2DE9FE4FBA
:10032000804681EA0300C00F0C46009021F0004196
:1003300023F00045B8EB0200A94105D24046214612
:1003400090461C460B46024623F00040104347D01F
:10035000270DC7F30A00C3F30A510290401A019017
:1003600040286BDAC3F3130040F4801B00989246D8
:1003700020B10023D2EB030A63EB0B0B0198594623
:10038000C0F14002504600F054FA06460D46504671
:100390005946019A00F06CFA10EB08006141002404
:1003A00087EA115284EAE7731A4340D0009A62B395
:1003B000019A012A4FEA075215DC001B61EB02018A
:1003C0004FF0004202EA0752CDE90042001C41F51D
:1003D000801132462B4600F0A3FA03B0BDE8F08F3F
:1003E00040462146F9E7001B61EB0201001C41F584
:1003F000801300185B412018A2F5001747EB03019A
:1004000040EAD570B6196D4111E06D084FEA360625
:1004100045EAC0754FEA0752001B61EB0201001C60
:1004200041F5801149084FEA300000195141324628
:100430002B4603B0BDE8F04F00F063BA00980122EC
:1004400040000023D0EB020263EBE07300982146EA
:100450004FEAE074B8EB000061EB0401E9E783F0D8
:1004600000435BE781F0004158E72DE9FE4F81EA48
:10047000030404F0004421F0004100944FF0000B0D
:1004800023F0004350EA01045ED052EA03045BD03B
:10049000C3F30A54C1F30A552C44A4F2F334019473
:1004A000A0FB0254C1F3130141F48011C3F3130301
:1004B00043F4801301FB024400FB034E840A970AB5
:1004C00044EA815447EA8357A4FB076802958D0AE2
:1004D00005FB07854FEA932C04FB0C542705029D6E
:1004E0004FEA065847EA1637B5EB08056EEB070CDE
:1004F000870E920E47EA811742EA8312A7FB020198
:10050000B6EB0B0164EB00042B0D43EA0C335E18D1
:1005100044EB1C50DA465146E7FB0201C5F31304D5
:100520004FEA0B3343EA14534FEA0432019C43EA87
:100530000603A4F10C040294009CCDE900B400F081
:10054000EFF903B0BDE8F08F00200146F9E72DE98F
:10055000F04D81EA030404F0004B21F000451446FD
:100560004FF0000A23F0004150EA050220D054EA7F
:1005700001021DD0C5F30A570246C5F31303C1F3A8
:100580001300C1F30A5640F4801543F48013A7EB1F
:100590000608101BD64608F2FD3873EB050002D39F
:1005A00008F1010801E092185B41B8F1000F03DA8D
:1005B00000200146BDE8F08D00204FF48011064672
:1005C00084460EE0171B73EB050705D3121B63EB84
:1005D000050306434CEA010C49084FEA3000921823
:1005E0005B4150EA0107EDD152EA030012D082EAE2
:1005F000040083EA0501084305D0101BAB4106D275
:100600000122002306E000224FF0004302E06FF0D9
:10061000010253101AEB06004CEB085110EB0A00D4
:1006200041EB0B01BDE8F04D00F06BB9C10F80EA62
:10063000E0700844CA079623002100F034B99623DD
:100640000022114600F02FB90EB5C10F80EAE0700C
:100650000844CA07002140F233438DE80E000A46E1
:100660000B4600F05DF903B000BD0EB540F233411A
:1006700002910021CDE900110A460B4600F050F925
:1006800003B000BD00F0004220F00040C10DC0F3F7
:10069000160040F400007F2901DA002070479629F7
:1006A00003DCC1F19601C84001E096398840002A78
:1006B000F4D04042704720F00040C10DC0F3160056
:1006C00040F400007F2901DA00207047962903DCFE
:1006D000C1F19601C840704796398840704770B59F
:1006E000C1F30A5201F000450024C1F3130140F2A6
:1006F000FF3341F480119A4201DA002070BD40F2CC
:1007000033439A42A2F2334203DC524200F0A0F893
:1007100000E090402C43F1D0404270BD00F0004218
:1007200030F000400AD0C10D01F56071C0F3160031
:1007300042EA0151C20840071143704700200146B8
:10074000704701F0004330B421F0004150EA01024B
:1007500006D00A0DA2F56072C1F31301002A02DC73
:1007600030BC00207047440F44EAC104C100E018C7
:1007700030BC00EBC25000F08DB80000002801DB57
:10078000C0F10040002901DBC1F100418142704706
:10079000002801DBC0F10040002901DBC1F100416C
:1007A0008842704730B50B460146002020220124C4
:1007B00009E021FA02F59D4205D303FA02F5491B2F
:1007C00004FA02F52844151EA2F10102F1DC30BD45
:1007D0002DE9F05F0546002092469B468846064676
:1007E000814640241BE0284641464746224600F009
:1007F0002FF853465A46C01A914110D31146184655
:10080000224600F016F82D1A67EB01084F462246E3
:100810000120002100F00DF817EB00094E41201EC9
:10082000A4F10104DFDC484631462A464346BDE8D0
:10083000F09F202A04DB203A00FA02F100207047E2
:100840009140C2F1200320FA03F31943904070470E
:10085000202A04DB203A21FA02F00021704721FA15
:1008600002F3D040C2F1200291400843194670477C
:10087000202A06DBCB17203A41FA02F043EAE07364
:1008800006E041FA02F3D040C2F120029140084351
:10089000194670470029A8BF7047401C490008BF8F
:1008A00020F00100704710B4B0FA80FC00FA0CF0A0
:1008B00050EA010404BF10BC704749B1CCF12004D8
:1008C00021FA04F411FA0CF118BF01212143084365
:1008D000A3EB0C01CB1D4FEA00614FEA102042BF91
:1008E000002010BC704700EBC35010440029A4BF87
:1008F00010BC7047401C490008BF20F0010010BC2C
:10090000704710B5141E73F1000408DA401C41F161
:10091000000192185B411A4301D120F0010010BD83
:100920002DE9F04D92469B4611B1B1FA81F202E0F9
:10093000B0FA80F220329046FFF77BFF04460F4664
:1009400040EA0A0041EA0B0153465A46084313D0D5
:10095000114653EA010019D0C8F140025046FFF792
:1009600077FF05460E46504659464246FFF761FF5F
:10097000084305D0012004E020463946BDE8F08D4B
:100980000020054346EAE0762C4337430A98630586
:10099000E40AA0EB08000022FD0A44EA47540A30AA
:1009A00002D500200146E9E7010510196941DDE99A
:1009B000084500196941BDE8F04DA2E770B521F086
:1009C000004303430CD0C1F30A550024D5EB0405C2
:1009D00064EB0403D617AD1AB34102DB00200146D5
:1009E00070BD201841EB025170BDC1F30A52C1F332
:1009F000130140F2FF3341F480119A4202DA0020E1
:100A00000146704740F233439A42A2F2334202DC7D
:100A10005242FFF71DBFFFF70CBF000030B5041EA8
:100A200071F1000404DB4FF00044404264EB01012B
:100A3000141E73F1000405DB1C464FF000435242C4
:100A400063EB04038B4208BF824230BD30B5041E05
:100A500071F1000404DB4FF00044404264EB0101FB
:100A6000141E73F1000405DB1C464FF00043524294
:100A700063EB0403994208BF904230BD064C074D1A
:100A800006E0E06840F0010394E80700984710345E
:100A9000AC42F6D3FFF750FB006500082065000864
:100AA00070B5044600252068806800F00100F0B1B0
:100AB0002068806820F001002168886001F046F815
:100AC00005460EE001F042F8401B022809D9A06A51
:100AD00040F01000A062E06A40F00100E0620120F6
:100AE00070BD2068806800F001000028EAD1002075
:100AF000F6E770B505466C6AA06A00F05000E0B9F0
:100B0000A06A40F40070A0622068806800F4602051
:100B1000B0F5602F0DD1207B58B9A06A20F4807009
:100B2000A062A06A00F4805018B9A06A40F00100E9
:100B3000A062204600F030F903E0206A016B2846ED
:100B4000884770BD70B505466C6AA06A40F04000E9
:100B5000A062E06A40F00400E062204600F037F94D
:100B600070BD70B50446656A284600F02FF970BD67
:100B700038B504460025002000902068806800F009
:100B8000010080BB2068806840F001002168886017
:100B9000164800681649B0FBF1F0009002E000989A
:100BA000401E009000980028F9D100F0CFFF0546C4
:100BB00013E000F0CBFF401B02280ED9A06A40F0E2
:100BC0001000A062E06A40F00100E06200BF002077
:100BD00084F8240000BF012038BD2068806800F040
:100BE00001000028E5D00020F6E70000000000200A
:100BF00040420F0000BFFEE710B5024800F08EFB38
:100C000010BD0000C803002030B590F8405001240A
:100C1000AC40C56B6C60046863604468102C04D100
:100C20000468A2600468E16003E00468A1600468ED
:100C3000E26030BD7047000038B502460023002056
:100C4000009000BF92F82400012801D1022038BD95
:100C5000012082F8240000BF4868072812D21068DB
:100C6000406B0C79641E04EB84051F24AC40A04348
:100C70000D796D1E05EB85050C68AC4020431468AA
:100C8000606327E048680D2812D21068006B0C7969
:100C9000E41F04EB84051F24AC40A0430D79ED1F35
:100CA00005EB85050C68AC4020431468206311E017
:100CB0001068C06A0C790D3C04EB84051F24AC401D
:100CC000A0430D790D3D05EB85050C68AC40204334
:100CD0001468E06208680A2812D31068C0680C78AB
:100CE0000A3C04EB44050724AC40A0430D780A3DC0
:100CF00005EB45058C68AC4020431468E0600FE0CC
:100D0000106800690C7804EB44050724AC40A0434C
:100D10000D7805EB45058C68AC40204314682061D4
:100D20000868102802D00868112827D1174C1068CD
:100D3000A0421ED11068806800F40000F0B910686D
:100D4000806840F400001468A0600868102815D17D
:100D50000F4800680F4CB0FBF4F000EB800040003F
:100D6000009002E00098401E009000980028F9D101
:100D700004E0906A40F020009062012300BF002050
:100D800082F8240000BF184661E7000000240140FB
:100D90000000002040420F0010B5044607492068BB
:100DA00088420AD1064800F085F9064803F0E2FDC2
:100DB000FA220549024800F0BDF810BD00240140A8
:100DC00098030020140600200C0400207047704790
:100DD0002DE9F0410446002700250026A84614B955
:100DE0000120BDE8F081A06810B1207D00B100BFF6
:100DF000A06A30B90020E06284F82400204600F0A8
:100E000097F82046FFF74CFE0746A06A00F0100056
:100E1000002873D1002F7ED1A06A20F4885040F0C2
:100E20000200A0623F4AD4E90001904208D1E06983
:100E3000B0F5402F02D14FF4002002E0E06900E05D
:100E4000E0690143207B41EA40000643A068B0F519
:100E5000807F02D0A068012802D14FF4807000E0AA
:100E600000200543207D012811D1207B38B9A069DD
:100E7000401E4FF4006141EA4030054307E0A06A9C
:100E800040F02000A062E06A40F00100E0622068CB
:100E9000406820F4694028432168486020688068E1
:100EA00021490840304321688860A068B0F5807F00
:100EB00002D0A068012802D14FF4807000E0002029
:100EC000B0F5807F03D1208A401E4FEA0058206889
:100ED000C06A20F4700040EA08002168C8622068F7
:100EE000806812490840B04209D10020E062A06A3F
:100EF00020F0020040F00100A06211E00BE0A06AC7
:100F000020F0020040F01000A062E06A40F0010012
:100F1000E062012704E0A06A40F01000A06201270F
:100F200038465EE7003C0140FDF7E1FFFE0E1FFF83
:100F3000704700002DE9F04104460D461646002793
:100F400057492068884203D056492068884205D115
:100F50005348001D006800F4702000E000200028C5
:100F60007ED100BF94F82400012802D10220BDE800
:100F7000F081012084F8240000BF2046FFF7F8FD2F
:100F80000746002F6DD1A06A40F60161884340F406
:100F90008070A06243492068884209D14048001D02
:100FA000006800F4702008B9012002E0002000E091
:100FB000012078B1A06A20F48010A0622068406807
:100FC00000F4806000B3A06A20F4005040F4805028
:100FD000A06219E0A06A40F48010A0623049206845
:100FE000884203D02F492068884205D12C48001D33
:100FF000006800F4806000E0002028B1A06A20F4BE
:10100000005040F48050A062A06A00F4805020B1EB
:10101000E06A20F00600E06201E00020E06200BF2C
:10102000002084F8240000BF1F48216A88621F48FE
:10103000216AC8621E48216A08636FF002002168B5
:1010400008602068806840F48070216888602268A9
:1010500002F14C0133462A46206A00F071FB01E0A0
:101060001AE014E02068806800F46020B0F5602F7A
:1010700006D12068806840F4A000216888600CE0F8
:101080002068806840F480102168886005E000BF17
:10109000002084F8240000E00127384667E70000BC
:1010A0000024014000280140F30A0008630B0008F7
:1010B000450B000870B50446002500BF94F82400D5
:1010C000012801D1022070BD012084F8240000BF56
:1010D0002046FFF7E5FC0546D5B92068806820F476
:1010E000807021688860206A90F8210002280FD162
:1010F000206A00F014F8054635B9A06A20F488503B
:1011000040F00100A06203E0A06A40F04000A0624D
:1011100000BF002084F8240000BF2846D3E7014622
:10112000002291F82100022808D00420886300BF23
:10113000002081F8200000BF012070470868006887
:1011400020F00E000B6818600868006820F00100AD
:101150000B68186091F8403001209840CB6B5860C4
:10116000012081F8210000BF002081F8200000BF8D
:101170001046E2E770B50446002594F821000228E5
:1011800003D00420A0630125C1E02068006820F09E
:101190000E00216808602068006820F001002168C6
:1011A00008605C492068884252D95A4978392068D9
:1011B000884201D1012047E05649643920688842BD
:1011C00001D1102040E0534950392068884201D1B4
:1011D000801539E04F493C392068884201D180149C
:1011E00032E04C4928392068884202D14FF48030DF
:1011F0002AE0484914392068884202D14FF480100F
:1012000022E044492068884201D140041CE0424960
:101210002068884201D1012016E03F49143120683E
:10122000884201D110200FE03B49283120688842D4
:1012300001D1801508E038493C312068884201D14D
:10124000801401E04FF480303349091F086051E0F9
:10125000304978392068884201D1012047E02D4982
:1012600064392068884201D1102040E02949503972
:101270002068884201D1801539E026493C39206830
:10128000884201D1801432E02249283920688842FE
:1012900002D14FF480302AE01E4914392068884278
:1012A00002D14FF4801022E01A492068884201D10F
:1012B00040041CE018492068884201D1012016E052
:1012C000154914312068884201D110200FE01249DD
:1012D00028312068884201D1801508E00E493C3150
:1012E0002068884201D1801401E04FF48030094920
:1012F00080394860012084F8210000BF002084F874
:10130000200000BF606B10B12046616B8847284603
:1013100070BD0000800002400804024070B5044621
:10132000E06B05682068066894F840100420884047
:101330002840002875D006F004000028FAD0206864
:10134000006800F0200028B92068006820F0040040
:1013500021680860D5492068884254D9D349783932
:101360002068884201D1042049E0D04964392068CE
:10137000884201D1402042E0CC495039206888425F
:1013800001D100153BE0C9493C392068884202D1AF
:101390004FF4804033E0C54928392068884202D1A3
:1013A0004FF480202BE0C14914392068884202D1D3
:1013B0004FF4800023E0BD492068884201D1C00479
:1013C0001DE0BB492068884201D1042017E0B849DC
:1013D00014312068884201D1402010E0B4492831FE
:1013E0002068884201D1001509E0B1493C312068EC
:1013F000884202D14FF4804001E04FF48020AC4994
:10140000091F086054E0A94978392068884201D151
:1014100004204AE0A54964392068884202D140206E
:1014200043E04CE0A14950392068884201D10015C1
:101430003BE09E493C392068884202D14FF480400D
:1014400033E09A4928392068884202D14FF480203D
:101450002BE0964914392068884202D14FF480006D
:1014600023E092492068884201D1C0041DE09049E0
:101470002068884201D1042017E08D49143120688A
:10148000884201D1402010E08949283120688842F3
:1014900001D1001509E086493C312068884202D11B
:1014A0004FF4804001E04FF480208049803948604B
:1014B000E06A002802D02046E16A8847F4E094F808
:1014C0004010022088402840002871D006F0020019
:1014D0000028FAD02068006800F0200040B9206899
:1014E000006820F00A0021680860012084F82100CB
:1014F0006E492068884254D96C49783920688842FE
:1015000001D1022049E0694964392068884201D14B
:10151000202042E0654950392068884201D14015B9
:101520003BE062493C392068884202D14FF40050C8
:1015300033E05E4928392068884202D14FF40030F8
:101540002BE05A4914392068884202D14FF4001028
:1015500023E056492068884201D180041DE05449A7
:101560002068884201D1022017E0514914312068D7
:10157000884201D1202010E04D492831206888425E
:1015800001D1401509E04A493C312068884202D126
:101590004FF4005001E04FF400304549091F086046
:1015A00054E0424978392068884202D102204AE05A
:1015B00057E03E4964392068884201D1202042E04A
:1015C0003A4950392068884201D140153BE03749FB
:1015D0003C392068884202D14FF4005033E033494F
:1015E00028392068884202D14FF400302BE02F497F
:1015F00014392068884202D14FF4001023E02B49AF
:101600002068884201D180041DE029492068884271
:1016100001D1022017E0264914312068884201D107
:10162000202010E0224928312068884201D140154D
:1016300009E01F493C312068884202D14FF4005034
:1016400001E04FF4003019498039486000BF0020A4
:1016500084F8200000BFA06A30B32046A16A884702
:1016600022E094F84010082088402840E0B106F0BD
:101670000800C8B12068006820F00E0021680860EA
:1016800094F8401001208840E16B48600120A0637D
:1016900084F8210000BF002084F8200000BF206BE8
:1016A00010B12046216B884770BD000080000240C9
:1016B000080402400146002209B9012070471E4B70
:1016C000086898420BD21D4B0868C01A1423B0FB5F
:1016D000F3F08000086419480838C8630AE0164B24
:1016E0000868C01A1423B0FBF3F0800008641248A5
:1016F0000838C863022081F821000868026843F6B0
:10170000F0708243D1E901031843CB6818430B6999
:1017100018434B6918438B691843CB69184302433C
:101720000868026000208863012081F82100002001
:1017300081F8200000BFC1E7080402400800024011
:101740002DE9F04104460D4616461F464FF00008AD
:1017500000BF94F82000012802D10220BDE8F081EA
:10176000012084F8200000BF94F8210001282CD12A
:10177000022084F821000020A0632068006820F087
:101780000100216808603B46324629462046FFF7A3
:101790003BFAE06A30B12068006840F00E00216832
:1017A00008600BE02068006820F0040021680860F1
:1017B0002068006840F00A0021680860206800681E
:1017C00040F001002168086006E000BF002084F8B6
:1017D000200000BF4FF002084046BFE72DE9F84760
:1017E000024600239C467BE14FF0010808FA03F40F
:1017F000D1F8008008EA0400A0427DD1DFF8F4A20D
:10180000D1F80480A8EB0A09D0453AD014DCB8F12D
:10181000030F50D009DCB8F1000F31D0B8F1010F3F
:101820001CD0B8F1020F49D120E0B8F1110F18D047
:10183000B8F1120F42D11EE0B9F5881F25D006DCA1
:10184000B9F5803F20D0B9F5801F37D11AE0B9F53E
:10185000001F18D0B9F5041F30D117E0D1F80CC023
:101860002DE0D1F80C8008F1040C28E0D1F80C80B0
:1018700008F1080C23E0D1F80C8008F10C0C1EE0F4
:1018800000BF00BF00BF00BF00BF00BFD1F808808D
:10189000B8F1000F02D14FF0040C0BE0D1F8088032
:1018A000B8F1010F03D14FF0080C146102E04FF0C2
:1018B000080C546103E04FF0000C00E000BF00BFD3
:1018C000FF2801D8904601E002F104084646FF28AF
:1018D00002D84FEA830803E0A3F108084FEA88081A
:1018E0004746D6F800804FF00F0909FA07F928EAB1
:1018F00009080CFA07F900E07AE048EA0908C6F896
:101900000080D1F8048008F08058B8F1805F6FD172
:1019100000BFDFF8E481D8F8188048F00108DFF84C
:10192000D891C9F81880C846D8F8188008F001087E
:10193000CDF8008000BF00BF4FEAB9384FEA9309E5
:1019400058F829504FEA83784FEA18794FF00F087A
:1019500008FA09F825EA0805DFF8A081424502D116
:101960004FF0000824E0DFF89881424502D14FF0A3
:1019700001081DE0DFF88C81424502D14FF00208DA
:1019800016E0DFF88481424502D14FF003080FE0F2
:10199000DFF87881424502D14FF0040808E0DFF813
:1019A0007081424502D14FF0050801E04FF0060872
:1019B0004FEA83794FEA197908FA09F848EA0505E8
:1019C000DFF850814FEA930948F82950D1F8048094
:1019D00008F48038B8F5803F0BD1DFF83C81D8F8A7
:1019E000008048EA0008DFF83091C9F800800AE07A
:1019F00075E0DFF82481D8F8008028EA0008DFF8D5
:101A00001891C9F80080D1F8048008F40038B8F5BE
:101A1000003F0ED1DFF8008108F10408D8F80080FB
:101A200048EA0008DFF8F09009F10409C9F80080DD
:101A30000DE0DFF8E48008F10408D8F8008028EA17
:101A40000008DFF8D49009F10409C9F80080D1F842
:101A5000048008F48018B8F5801F0ED1DFF8B88034
:101A600008F10808D8F8008048EA0008DFF8A890D4
:101A700009F10809C9F800800DE0DFF89C8008F141
:101A80000808D8F8008028EA0008DFF88C9009F1EF
:101A90000809C9F80080D1F8048008F40018B8F5E6
:101AA000001F0ED1DFF8708008F10C08D8F8008014
:101AB00048EA0008DFF8609009F10C09C9F80080D5
:101AC0000DE0DFF8548008F10C08D8F8008028EA0F
:101AD0000008DFF8449009F10C09C9F800805B1C8C
:101AE000D1F8008028FA03F8B8F1000F7FF47CAE3B
:101AF000BDE8F88700001110001002400008014006
:101B0000000C014000100140001401400018014089
:101B1000001C014008000140000401400246936897
:101B20000B400BB1012000E00020704710B5C268E7
:101B300021EA020302EA010443EA0443036110BDFF
:101B40000AB1016101E00B040361704701480068BC
:101B5000704700001000002010B50848006840F0F1
:101B6000100006490860052000F080F80F2000F002
:101B700007F800F02BF8002010BD00000020024004
:101B800070B504460E4800784FF47A71B1FBF0F05E
:101B90000C490968B1FBF0F5284600F0F7FB08B1E5
:101BA000012070BD102C07D200222146501E00F0EB
:101BB0001EF80548046001E00120F2E70020F0E78C
:101BC000180000200000002014000020704701468B
:101BD0000846002809DB00F01F0301229A40430950
:101BE0009B0003F1E023C3F8002100BF70472DE9FB
:101BF000F05F80460D461646002702F007F80746BC
:101C000039462A46334601F00700C0F1070ABAF107
:101C1000040F02D94FF0040A01E0C0F1070AD146CF
:101C200000F1040ABAF1070F02D24FF0000A01E0F6
:101C3000A0F1030AD4464FF0010A0AFA09FAAAF100
:101C4000010A0AEA020A0AFA0CFA4FF0010B0BFA2F
:101C50000CFBABF1010B0BEA030B4AEA0B04214628
:101C6000404601F0DBFFBDE8F09F000000BF00F040
:101C70000702064B19684FF6FF031940044B0B434C
:101C800043EA0221014B196000BF70470CED00E0F0
:101C90000000FA0570B504460D460CB9012070BD70
:101CA0005A48006800F00700A8420ED25748006862
:101CB00020F007002843554908600846006800F0F6
:101CC0000700A84201D00120E9E7207800F00200D7
:101CD00002281DD1207800F00400042805D14C48CA
:101CE000406840F4E0604A494860207800F008000D
:101CF000082805D14648406840F46050444948608F
:101D00004348406820F0F000A1680843404948601B
:101D1000207800F0010078B36068012806D13C48C3
:101D2000006800F4003090B90120B8E7606802282C
:101D300006D13748006800F0007040B90120AEE7D6
:101D40003348006800F0020008B90120A7E73048D6
:101D5000406820F00300616808432D494860FFF7A0
:101D6000F5FE064609E0FFF7F1FE801B41F28831DF
:101D7000884202D9032092E707E02548406800F036
:101D80000C006168B0EB810FEDD12048006800F0D5
:101D90000700A8420ED91D48006820F0070028431C
:101DA0001A4908600846006800F00700A84201D000
:101DB000012074E7207800F00400042807D11448BB
:101DC000406820F4E060E1680843114948602078E9
:101DD00000F00800082808D10D48406820F4605041
:101DE000216940EAC1000A49486000F03FF808490B
:101DF0004968C1F30311074A515CC84006490860AD
:101E000006480068FFF7BCFE002048E700200240BB
:101E1000001002407462000800000020140000203E
:101E200001480068704700000000002000B5FFF77F
:101E3000F7FF04494968C1F30221034A515CC840D5
:101E400000BD0000001002408462000800B5FFF7EA
:101E5000E7FF04494968C1F3C221034A515CC84005
:101E600000BD00000010024084620008F0B585B09B
:101E70000FF26C0C9CE8E01001A8A0E8E0101CA593
:101E80002D68009500210022002300240020194D18
:101E9000696801F00C05F5B1042D02D0082D19D1A7
:101EA00001E0154819E001ADC1F38346AC5D01F4D2
:101EB000803555B10F4D6D68C5F340451DF80520BF
:101EC0000D4D6543B5FBF2F302E00C4D04FB05F349
:101ED000184602E000BF084800BF00BF05B0F0BDD3
:101EE00002030405060708090A0B0C0D0E0F10105B
:101EF000010200000010024000127A0000093D00BB
:101F0000F8B504460CB90120F8BD207800F00100B6
:101F1000002878D0F848406800F00C0004280CD065
:101F2000F548406800F00C00082811D1F2484068DC
:101F300000F48030B0F5803F0AD1EF48006800F42B
:101F4000003000285FD0606800285CD10120DBE70A
:101F500000BF6068B0F5803F06D1E748006840F4F4
:101F60008030E549086028E0606858B9E2480068B8
:101F700020F48030E04908600846006820F48020A2
:101F800008601AE06068B0F5A02F0BD1DA4800684D
:101F900040F48020D84908600846006840F480304A
:101FA00008600AE0D448006820F48030D249086014
:101FB0000846006820F48020086000BF606888B18F
:101FC000FFF7C4FD054606E0FFF7C0FD401B64288F
:101FD00001D9032098E7C848006800F400300028C1
:101FE000F2D010E0FFF7B2FD054606E0FFF7AEFDC8
:101FF000401B642801D9032086E7BF48006800F42D
:1020000000300028F2D1207800F00200022857D1D9
:10201000B948406800F00C0050B1B748406800F083
:102020000C00082818D1B448406800F4803098B9F2
:10203000B148006800F0020020B12069012801D0F9
:10204000012061E7AC48006820F0F800616940EACF
:10205000C100A949086033E02069E8B10120A7491F
:102060000860FFF773FD054606E0FFF76FFD401BB4
:10207000022801D9032047E79F48006800F00200CA
:102080000028F2D09C48006820F0F800616940EA1E
:10209000C1009949086013E0002098490860FFF7E3
:1020A00055FD054606E0FFF751FD401B022801D90A
:1020B000032029E79048006800F002000028F2D1D0
:1020C000207800F0080008282DD1A069B8B10120BF
:1020D0008B490860FFF73AFD054606E0FFF736FD3D
:1020E000401B022801D903200EE78348406A00F014
:1020F00002000028F2D0012001F0A4FA13E0002031
:102100007F490860FFF722FD054606E0FFF71EFD48
:10211000401B022801D90320F6E67748406A00F008
:1021200002000028F2D1207800F00400042873D1C6
:1021300000277148C06900F0805070B900BF6E4838
:10214000C06940F080506C49C8610846C06900F021
:102150008050009000BF00BF01276A48006800F46B
:102160008070B0B96748006840F4807065490860C5
:10217000FFF7ECFC054606E0FFF7E8FC401B64288F
:1021800001D90320C0E65F48006800F48070002891
:10219000F2D000BFE068012806D15748006A40F03D
:1021A00001005549086227E0E06858B95248006AC2
:1021B00020F00100504908620846006A20F004003F
:1021C000086219E0E06805280BD14B48006A40F02E
:1021D0000400494908620846006A40F001000862AC
:1021E0000AE04548006A20F00100434908620846B9
:1021F000006A20F00400086200BFE068A0B1FFF7A9
:10220000A5FC054609E0FFF7A1FC401B41F288311F
:10221000884202D9032077E622E03748006A00F0BE
:1022200002000028EFD012E0FFF790FC054608E01E
:10223000FFF78CFC401B41F28831884201D9032012
:1022400062E62D48006A00F002000028F0D1012F5C
:1022500005D12948C06920F080502749C86100BFD6
:10226000E069C8B32448406800F00C00082860D03A
:10227000E069022848D1002020490866FFF766FC83
:10228000054606E0FFF762FC401B022801D9032047
:102290003AE61948006800F000700028F2D1206A80
:1022A000B0F5803F07D11448406820F40030A168A1
:1022B000084311494860D4E9080108430E494968B8
:1022C00021F4741108430C49486001200B49086649
:1022D000FFF73CFC054607E03DE0FFF737FC401BFD
:1022E000022801D903200FE60348006800F00070BF
:1022F0000028F2D02FE0000000100240000042420F
:102300008004424200700040002014490866FFF734
:102310001DFC054606E0FFF719FC401B022801D909
:102320000320F1E50E48006800F000700028F2D1AB
:1023300011E0E069012800D1E6E50948466806F4A5
:102340008031206A814204D106F47011606A8142B2
:1023500001D00120D8E50020D6E50000000042426F
:1023600000100240042808D14FF0E021096941F033
:1023700004014FF0E022116107E04FF0E02109690C
:1023800021F004014FF0E0221161704770B504465E
:102390002546681EB0F1807F01D301200FE0681E42
:1023A0004FF0E02148610F214FF0FF3001F036FC83
:1023B00000204FF0E021886107200861002070BDF7
:1023C0007047704710B504460CB9012010BD94F851
:1023D0003D0028B9002084F83C00204600F026F893
:1023E000022084F83D00211D206801F051F90120F0
:1023F00084F8460000BF84F83E0001213F200155CB
:10240000402001554120015500BF00BF012084F844
:10241000420043200155442001554520015500BF8D
:10242000012084F83D000020D0E7000038B50446C4
:102430002068B0F1804F15D100BF0B48C06940F053
:1024400001000949C8610846C06900F00100009018
:1024500000BF00BF032201211C20FFF7C8FB1C2086
:10246000FFF7B5FB38BD000000100240014691F8AF
:102470003D00012801D001207047022081F83D0075
:102480000868C06840F001000B68D860164B086807
:10249000984213D0154B086898420FD00868B0F1E5
:1024A000804F0BD0124B0868984207D0114B086838
:1024B000984203D0104B086898420CD10868806895
:1024C00000F00702062A0CD00868006840F00100FE
:1024D0000B68186005E00868006840F001000B68B0
:1024E00018600020C8E70000002C014000340140C3
:1024F0000004004000080040000C0040704710B588
:10250000044620680069C0F34000D8B12068C06864
:10251000C0F34000B0B16FF00200216808610120F3
:1025200020772068806900F0030018B12046FFF78B
:10253000E5FF05E0204600F0ADF8204600F022FA65
:102540000020207720680069C0F38000D8B120689F
:10255000C068C0F38000B0B16FF00400216808616A
:10256000022020772068806900F4407018B120466E
:10257000FFF7C4FF05E0204600F08CF8204600F08D
:1025800001FA0020207720680069C0F3C000D8B1AC
:102590002068C068C0F3C000B0B16FF008002168C7
:1025A0000861042020772068C06900F0030018B19A
:1025B0002046FFF7A3FF05E0204600F06BF8204619
:1025C00000F0E0F90020207720680069C0F30010D7
:1025D000D8B12068C068C0F30010B0B16FF010002F
:1025E00021680861082020772068C06900F44070E5
:1025F00018B12046FFF782FF05E0204600F04AF8B8
:10260000204600F0BFF9002020772068006900F024
:10261000010058B12068C06800F0010030B16FF0CF
:10262000010021680861204600F07CFA20680069FA
:10263000C0F3C01058B12068C068C0F3C01030B1FA
:102640006FF08000216808612046FFF7B9FE20681E
:102650000069C0F3801058B12068C068C0F38010D2
:1026600030B16FF0400021680861204600F0BEFDE7
:1026700020680069C0F3401058B12068C068C0F3FA
:10268000401030B16FF02000216808612046FFF74C
:1026900098FE10BD704770B504460D46164600BF43
:1026A00094F83C00012801D1022070BD012084F87B
:1026B0003C0000BF36B1042E1BD0082E31D00C2EAA
:1026C0005ED145E02946206801F042F82068806923
:1026D00040F00800216888612068806920F00400CB
:1026E00021688861206880692969084321688861B8
:1026F00047E02946206801F063F82068806940F4CB
:102700000060216888612068806920F48060216809
:10271000886120688069296940EA01202168886110
:102720002FE02946206801F089F82068C06940F050
:1027300008002168C8612068C06920F00400216891
:10274000C8612068C069296908432168C86118E028
:102750002946206801F0AEF82068C06940F40060A6
:102760002168C8612068C06920F480602168C86160
:102770002068C069296940EA01202168C86100E039
:1027800000BF00BF00BF002084F83C0000BF00BFB6
:102790008BE710B504460CB9012010BD94F83D003C
:1027A00028B9002084F83C00204600F025F80220DB
:1027B00084F83D00211D206800F06AFF012084F8A4
:1027C000460000BF84F83E0001213F200155402013
:1027D00001554120015500BF00BF012084F842008F
:1027E00043200155442001554520015500BF0120DB
:1027F00084F83D000020D0E710B586B004465D495E
:10280000206888427ED100BF5B48806940F4006048
:10281000594988610846806900F40060019000BF52
:1028200000BF00BF0846806940F04000886108464C
:10283000806900F04000019000BF00BF00BF084663
:10284000806940F0400088610846806900F04000DF
:10285000019000BF00BF00BF0846806940F0400003
:1028600088610846806900F04000019000BF00BF09
:1028700000BF0846806940F04000886108468069D2
:1028800000F04000019000BF00BF00BF0846806913
:1028900040F0400088610846806900F040000190E7
:1028A00000BF00BF00BF0846806940F0400088615B
:1028B0000846806900F04000019000BF00BF00BFE3
:1028C0000846806940F0010088610846806900F090
:1028D0000100019000BF00BF00BF2849486820F0F8
:1028E000C00040F0E06040F0C000486000BF8815C4
:1028F000029000200490032005900120039002A97B
:102900001F4800E033E0FEF769FF4FF4806002905B
:1029100002A91B48FEF762FF4FF48050029002A903
:102920001748FEF75BFF4FF40070029002200390FF
:10293000002004900320059002A91148FEF74EFFE5
:102940004FF40060029002A90D48FEF747FF4FF4D4
:102950000050029002A90A48FEF740FF02221146E9
:102960001920FFF744F91920FFF731F900BF06B02D
:1029700010BD0000002C014000100240000001408A
:10298000001801407047000070B504460D4615B9A7
:1029900094F83E000BE0042D02D13F20005D06E0DC
:1029A000082D02D14020005D01E04120005D01289A
:1029B00001D0012070BD1DB9022084F83E000EE058
:1029C000042D03D102213F20015508E0082D03D139
:1029D00002214020015502E002214120015501223F
:1029E0002946206800F0A2FE1F492068884203D0D3
:1029F0001E492068884201D1012000E0002028B152
:102A00002068406C40F40040216848641649206802
:102A1000884213D01549206888420FD02068B0F151
:102A2000804F0BD012492068884207D01149206896
:102A3000884203D01049206888420CD12068806801
:102A400000F00706062E0CD02068006840F0010058
:102A50002168086005E02068006840F001002168F6
:102A600008600020A6E70000002C0140003401406F
:102A70000004004000080040000C004030B504464F
:102A80000D4600222946206800F050FE23492068A8
:102A9000884203D022492068884201D1012000E009
:102AA000002090B100BF2068006A41F21111084077
:102AB00050B92068006A8910084028B92068406C25
:102AC00020F400402168486400BF00BF2068006A0D
:102AD00041F21111084050B92068006A891008407D
:102AE00028B92068006820F001002168086000BF54
:102AF0001DB9012084F83E000EE0042D03D1012110
:102B00003F20015508E0082D03D101214020015547
:102B100002E0012141200155002030BD002C014080
:102B2000003401402DE9FF5F81464FF0000AD34693
:102B3000FE49D9F8000088427CD1FD480078012880
:102B4000FAD1002424E0FB49A01C31F81000FA4916
:102B500021F81400084630F8140004EB041101EBCE
:102B60004101F64A02EB4101B1F86410401A00B28B
:102B7000F34921F81400084630F91400002805DB59
:102B8000084630F81400EF4921F81400601CC4B264
:102B9000032CD8DBE648807805280FD1E949B1F944
:102BA0000010E84AB2F902208818FDF73FFD0546FB
:102BB000E549FDF743FBE549086063E0DC488078C0
:102BC00001280FD1DF49B1F90010DE4AB2F9042023
:102BD0008818FDF72BFD0546DB49FDF72FFBDB4988
:102BE00008604FE0D248807803280FD1D549B1F969
:102BF0000210D44AB2F904208818FDF717FD0546E3
:102C0000D149FDF71BFBD14908603BE0C8488078FB
:102C1000022810D1CB49B1F90010CA4AB2F90220FA
:102C20008818FDF703FD0546C749FDF707FBC749AF
:102C3000086027E068E1BE48807806280FD1C149C6
:102C4000B1F90010BF4AB2F904208818FDF7EEFC74
:102C50000546BD49FDF7F2FABC49086012E0B448E8
:102C6000807804280ED1B749B1F90410B54AB2F9F9
:102C700002208818FDF7DAFC0546B349FDF7DEFAB5
:102C8000B2490860AA488079022805D1012002F0E3
:102C900069FBA749887006E0012002F063FBC0F1E0
:102CA0000700A3498870A248807806280BDCA0485A
:102CB0008078012807DB9E498978491EA44A52F88A
:102CC0002100804704E003F047FA0020984908708B
:102CD0009748406A401C96494862C87803F09EFABB
:102CE0009349087108460079A0BB084680790228FC
:102CF00007D10846406A9749B1FBF0F00FFA80FB14
:102D000007E08B48406A9349B1FBF0F040420FFA6C
:102D100080FB5846FDF798FC05468F4A8F4BFDF720
:102D2000A4FBCDE902018249C868FDF78DFC054688
:102D30008B4A8C4BFDF799FBCDE90001DDE90223BD
:102D4000FDF7ECFA0746FDF7CAFC7949C860002098
:102D50000862486276480079012803D1002074494E
:102D6000086248627248007902280ED17048006AF1
:102D7000401C6F4908620846006A43F69821884261
:102D800003D900206A490862C860694840796849E7
:102D9000897888421CD0002065494861084601F0C6
:102DA0001FFE8246BAF1010F05D161488068401EBE
:102DB0005F49886007E0BAF1020F04D15C4880687F
:102DC000401C5B4988605A4880785949487119E02D
:102DD00057480078012815D155484069401C54498E
:102DE00048610846406943F6982188420AD9002084
:102DF0004F49486103F0B0F900204D4908704882FE
:102E0000012048704A48007801287DD15648007852
:102E1000401C5549087055480078401C53490870BB
:102E200008460078022840DD4149C868FDF7FEFBEE
:102E3000054629464E4802F0BBFA4E49086008464E
:102E40000068FDF701FC4C4A4C4BCDE90001FDF751
:102E50000CFBCDE902014A480068FDF7F5FB494A41
:102E6000494BCDE90001FDF700FB0746DDE90223F0
:102E7000FDF754FA0546FDF732FC41490860084663
:102E80000068002805DA0846006840423F490860AB
:102E900003E03B4800683D4908603D4800683D4903
:102EA000096808600020314908702F48007801281F
:102EB0003BDD394908683949FDF7BAF90546234829
:102EC00001682846FDF75AFC77D235480078401C47
:102ED0003349087008460078042868DD002008702F
:102EE0001A4801682C4802F063FA2E490860084627
:102EF0000068FDF7A9FB05461F4A204BFDF7B5FA10
:102F0000CDE90001284800E0B1E00068FDF79CFB36
:102F100005461C4A1C4BFDF7A8FA0746DDE90023CD
:102F2000FDF7FCF9CDE9020142E073E0002C01401D
:102F30001C000020140600208E0300205C020020EC
:102F40007A00002080000020FFD7D64088000020B3
:102F500044000020B01E040088F4DBD78173CE3F0C
:102F6000DE02098A1F63E83F610000206000002044
:102F70006006002064000020C3F5285C8FC2B53FC6
:102F80006C00002048E17A14AE47ED3F7400002049
:102F90008C00002090000020200600200000A041AE
:102FA00062000020680000207000002005E02EE094
:102FB000FDF795FB7949086029E000207849087001
:102FC00078480168784802F0F3F9784908600846C3
:102FD0000068FDF739FB0546754A764BFDF745FA63
:102FE000074688466D480068FDF72EFB0546724A85
:102FF000724BFDF73AFA3A464346CDE90001FDF738
:103000008DF9CDE90201FDF76AFB644908600020F3
:103010006B490870614800686A490968884213DD95
:10302000684800886849488268480068002806DACD
:103030006748006980F000405B49086117E0644818
:1030400000695949086112E0544800885E49488285
:103050005E480068002806DA5348006980F00040A6
:103060005B49086103E05048006959490861D9F893
:103070000000B0F1804F7DD156480078401C554982
:10308000087051480078E8BB00210191029103913A
:1030900051498988514A524B1B7822F813104E49E6
:1030A000CA884E4966314E4B1B7821F813204A4995
:1030B0000A894A49CC314A4B1B7821F813204849E8
:1030C0000978491C464A117011460978322901DBFA
:1030D00000211170002017E0404A32F810200199B9
:1030E000114401913D49663131F81010029A1144A2
:1030F00002913A49CC3131F81010039A11440391EE
:10310000411C00E01EE0C8B23228E5DB002016E0DA
:1031100001A951F820103222B1FBF2F101AA42F8C4
:10312000201001A931F8201000EB001202EB42023E
:103130002A4B03EB4202A2F86410411CC8B20328D8
:10314000E6DB00BF23480078282825D11E484078B8
:1031500001281ED123480078401C224908700846E7
:103160000078322815DD0020087002F097FF02F089
:10317000F3FF00E010E01C48154908604FF4FA70B6
:10318000114948820120087002F0CEFF00200E494C
:10319000487000200F490870BDE8FF9F70000020B4
:1031A0006200002088000020200600206800002027
:1031B000C3F5285C8FC2B53F48E17A14AE47ED3FB6
:1031C00061000020740000201C0000206C00002022
:1031D0006006002095000020140600205C020020FC
:1031E00078000020940000200000C843704770471A
:1031F0002DE9F0470446206805682068C668206805
:1032000047694FF00008C14605F00F08B8F1000FFC
:103210000AD105F0200038B106F0200020B1204688
:1032200000F09CFBBDE8F087B8F1000F71D007F00B
:10323000010018B906F4907000286AD005F001006A
:1032400030B106F4807018B1E06B40F00100E0632B
:1032500005F0040030B107F0010018B1E06B40F058
:103260000200E06305F0020030B107F0010018B180
:10327000E06B40F00400E06305F0080048B106F0A0
:10328000200010B907F0010018B1E06B40F0080011
:10329000E063E06B68B305F0200028B106F0200081
:1032A00010B1204600F05AFB20684069C0F3801935
:1032B000E06B00F0080010B9B9F1000F22D02046F1
:1032C00000F02CFB2068406900F04000B0B120689D
:1032D000406920F0400021684861606B50B1184897
:1032E000616B4863606BFDF745FF10B1606B416B2C
:1032F00088470CE02046FFF77AFF08E02046FFF7FA
:1033000076FF04E02046FFF772FF0020E06389E7C4
:10331000FFE705F0800030B106F0800018B12046CC
:1033200000F0EAFB7EE705F0400030B106F0400017
:1033300018B1204600F002FB74E700BF72E70000FE
:103340000939000810B504460CB9012010BDA06968
:1033500000B100E000BF94F8390028B9002084F8DB
:103360003800204600F028F8242084F8390020682E
:10337000C06820F400502168C860204600F03EFB81
:103380002068006920F49040216808612068406945
:1033900020F02A00216848612068C06840F400508D
:1033A0002168C8600020E063202084F8390084F898
:1033B0003A000020CAE7000010B586B0044628494C
:1033C000206888424AD100BF00BF2648806940F08B
:1033D0000400244988610846806900F004000190D7
:1033E00000BF00BF00BF00BF00BF0846806940F0BB
:1033F000040088610846806900F00400019000BF65
:1034000000BF00BF00BF00BF0846806940F4804095
:1034100088610846806900F48040019000BF00BFC9
:1034200000BF481502900220039001200490032061
:10343000059002A90C48FEF7D1F94FF48060029084
:103440000020039002A90848FEF7C8F92520FEF7DE
:10345000BEFB032211462520FEF7C9FB06B010BDB6
:1034600000380140001002400008014010B503463A
:1034700093F83A0020282FD101B10AB9012010BDDC
:1034800000BF93F83800012801D10220F7E701209E
:1034900083F8380000BF99629A85DA850020D863E6
:1034A000222083F83A0000BF002083F8380000BFD4
:1034B0001868C06840F480701C68E0601868406953
:1034C00040F001001C6860611868C06840F020008E
:1034D0001C68E0600020D2E70220D0E71D4A0168A6
:1034E000914236D11C49098801F4004189BB1A492F
:1034F000098801F4804171B1184909780A2903D07B
:103500000021154A118024E01349098841F4004143
:10351000114A11801DE0114909780D2906D10E4983
:10352000098841F480410C4A118012E00B49097866
:10353000094A1288C2F30D02094B995406490988B9
:10354000491C054A118011460988C72901DD00215F
:1035500011807047003801400C0000200E00002050
:10356000A80000202DE9F84F04460E46174699465C
:103570004FF0000A94F8390020285AD106B117B943
:103580000120BDE8F88F00BF94F83800012801D170
:103590000220F6E7012084F8380000BF0020E06335
:1035A000212084F83900FEF7D1FA8246A784E78407
:1035B000A068B0F5805F04D1206910B90025B0463D
:1035C00002E035464FF0000800BF002084F83800C4
:1035D00000BF1BE05346002280212046CDF800901A
:1035E00000F0BAFA08B10320CBE745B9B8F80000FB
:1035F000C0F308002168486008F1020803E0287859
:10360000216848606D1CE08C401EE084E08C00283E
:10361000E0D15346002240212046CDF8009000F032
:103620009BFA08B10320ACE7202084F83900002081
:10363000A7E70220A5E7704700BFFEE700BFFEE74F
:103640007047000008B508490968C9084FF47A7244
:10365000B1FBF2F14143009100BF00BF00994A1E47
:1036600000920029F9D108BD000000207047704782
:1036700010B50248FEF743FF10BD0000B001002066
:1036800010B50248FEF73BFF10BD000014020020F9
:1036900010B50268204B98420ED0204B98420BD0B8
:1036A000B0F1804F08D01E4B984205D01D4B984278
:1036B00002D01D4B984203D122F070024B681A438E
:1036C000154B98420ED0154B98420BD0B0F1804F5D
:1036D00008D0134B984205D0124B984202D0124B9F
:1036E000984203D122F44072CB681A4322F080033F
:1036F0004C6943EA040202608B68C3620B68836210
:10370000054B984202D0054B984201D10B690363E7
:103710000123436110BD0000002C01400034014032
:103720000004004000080040000C004030B501F0EB
:103730001F05012404FA05F3046A9C430462046A29
:1037400001F01F0502FA05F52C43046230BD0000AC
:1037500030B5056A25F001050562026A436884698F
:1037600024F0700424F003040D682C4322F00202BC
:103770008D682A43104DA84200D103E00F4DA842A6
:1037800006D100BF22F00802CD682A4322F00402CD
:10379000094DA84202D0094DA84207D123F48073F5
:1037A00023F400734D692B438D692B43436084617F
:1037B0004D684563026230BD002C01400034014079
:1037C00030B5056A25F010050562026A4368846910
:1037D00024F4E04424F440740D6844EA052422F003
:1037E00020028D6842EA0512124DA84200D103E082
:1037F000114DA84207D100BF22F08002CD6842EAF5
:10380000051222F040020B4DA84202D00A4DA842F8
:1038100009D123F4806323F400634D6943EA8503EF
:103820008D6943EA8503436084614D688563026264
:1038300030BD0000002C01400034014030B5056A65
:1038400025F480750562026A4368C46924F0700437
:1038500024F003040D682C4322F400728D6842EAC0
:103860000522124DA84200D103E0114DA84207D114
:1038700000BF22F40062CD6842EA052222F4806291
:103880000A4DA84202D00A4DA84209D123F4805320
:1038900023F400534D6943EA05138D6943EA051388
:1038A0004360C4614D68C563026230BD002C0140B5
:1038B0000034014030B5056A25F480550562036A7D
:1038C0004468C26922F4E04222F440720D6842EA80
:1038D000052223F400538D6843EA0533084DA842BE
:1038E00002D0084DA84204D124F480444D6944EA32
:1038F00085144460C2614D680564036230BD0000F8
:10390000002C01400034014070B505466C6A00206F
:10391000E085E0842046FFF76AFC70BD0168C96855
:1039200021F490710268D1600168496921F00101B8
:1039300002685161202180F83A10704710B50446A2
:103940002068C06820F040002168C860202084F80A
:1039500039002046FFF76FFE002010BD70B5044609
:1039600094F83A00222847D1A068B0F5805F0CD1C6
:10397000206950B90025A66A20684068C0F3080095
:103980003080A06A801CA06215E0A56A0026A068AD
:10399000B0F5805F03D0A06828B9206918B9206805
:1039A0004068287004E02068406800F07F002870BC
:1039B000A06A401CA062E08D401E80B2E085C8B9BC
:1039C0002068C06820F020002168C8602068C068B6
:1039D00020F480702168C8602068406920F00100F0
:1039E00021684861202084F83A002046FFF776FDE0
:1039F000002070BD0020FCE70220FAE770B5044605
:103A00002168096921F44051E2681143226811617B
:103A10002269A1681143626941EA02052168C96807
:103A200041F20C62914329432268D16021684969BF
:103A300021F44071A2691143226851612D4A216825
:103A4000914202D1FEF702FA01E0FEF7EFF900EB36
:103A5000C00101EB001162689200B1FBF2F100EBD2
:103A6000C00202EB001263689B00B2FBF3F2642316
:103A7000B2FBF3F202EBC20303EB0212A1EB8201F1
:103A8000322202EB01116422B1FBF2F101F0F001EC
:103A900000EBC00202EB001263689B00B2FBF3F282
:103AA0006423B2FBF3F201EB021200EBC00101EB65
:103AB000001163689B00B1FBF3F100EBC00303EB63
:103AC00000136668B600B3FBF6F36426B3FBF6F3A7
:103AD00003EBC30606EB0313A1EB8301322303EBD5
:103AE00001116423B1FBF3F101F00F0111442268CD
:103AF000916070BD00380140014691F839002128DD
:103B000028D18868B0F5805F0BD1086948B90A6A86
:103B10001088C0F308000B685860086A801C0862AF
:103B200005E00B6A581C086218780B685860C88C4E
:103B3000401E80B2C88458B90868C06820F0800070
:103B40000B68D8600868C06840F040000B68D86017
:103B5000002070470220FCE72DE9F04104460D46A5
:103B600017469846069E21E0701CF8B12EB1FDF76D
:103B7000EDFFA0EB0800B04218D92068C06820F41F
:103B8000D0702168C8602068406920F00100216879
:103B90004861202084F8390084F83A0000BF0020F2
:103BA00084F8380000BF0320BDE8F0812068006879
:103BB0002840A84201D1012000E00020B842D3D023
:103BC0000020F1E710B50648FFF712FB00BF012205
:103BD00004490348FFF74AFC0028F8D110BD000053
:103BE000700100200E00002000BFFEE70FB4054B5F
:103BF00010B503A9044A029800F052F910BC5DF810
:103C000014FB000019520008080000200248006858
:103C1000C0F30220704700000CED00E010B5002852
:103C200004DB0A07130E054A135406E00A07140EB4
:103C3000034A00F00F031B1FD45410BD00E400E042
:103C400018ED00E02DE9F0414F1E00EBC7010446DE
:103C5000D1E9000115461E4637F006020DD02A466E
:103C60003346FCF702FC7F1E04EBC703D3E90023B5
:103C7000FCF754FB37F00602F1D1022F25D0042FB8
:103C800013D0062F18BFBDE8F0812A463346FCF753
:103C9000ECFBD4E90A23FCF741FB2A463346FCF748
:103CA000E4FBD4E90823FCF739FB2A463346FCF74A
:103CB000DCFBD4E90623FCF731FB2A463346FCF74C
:103CC000D4FBD4E90423FCF729FB2A463346FCF74E
:103CD000CCFBD4E90223FCF721FB2A463346FCF750
:103CE000C4FBD4E90023BDE8F041FCF717BB00009A
:103CF0000022134610460149FCF729BC0000F03FA2
:103D00000122FCF75BBE0022134610461146FCF769
:103D10001EBC02E008C8121F08C1002AFAD1704771
:103D20007047002001E001C1121F002AFBD170473B
:103D30000149086070470000A40000202DE9FF5FE2
:103D4000DDE90220010DDDF838B0024318D044F659
:103D50001050A1F2FF3141430D140F98012820D0DB
:103D6000A5EB0B00401C5FEA000A4FF00004474E31
:103D7000DFF81C91A046504616D5CAF1000728E08E
:103D80000F98012443A2012808D0002100980F9B1E
:103D9000C0E90021C0E90243BDE8FF9F6FEA0B01C3
:103DA000F4E7CBF10000DEE7074612E0F80707D0A2
:103DB0002246334640464946FCF757FB8046894633
:103DC0002246334610461946FCF74FFB04460E4682
:103DD0007F10002FEAD1DDE90201BAF1000F42465F
:103DE0004B4602DAFCF741FB01E0FCF7B0FB04466E
:103DF0000E460022284BFCF729FE03D84FF0FF3077
:103E0000014607E00022254B20463146FCF786FAA2
:103E1000FCF7EBFD102409E0002C0ADB0A2200234A
:103E2000FCF7D6FC019B30321A55641E50EA0102A1
:103E3000F2D1641C019AC4F1110314440F9A012AAF
:103E400003D0012208430DD10AE0084304D000202A
:103E50004FF0110B0F9080E7A3EB0B056D1E0DE0EB
:103E60005B4504DD4FF0000205F1010504E003DAD3
:103E70004FF00002A5F10105002AECD000980F993F
:103E8000C0E90231C0E9004586E700000000244097
:103E90000000F03F300000000000F0430000E03F71
:103EA0002DE9FF4F95B09B468946064600250FE257
:103EB000252877D100242746F84A0121059400E0FF
:103EC000044316F8013F203B01FA03F01042F7D1FA
:103ED00030782A2811D06FF02F033078A0F130020B
:103EE000092A16D8059A44F0020402EB820203EB79
:103EF00042021044761C0590EFE759F8042B059216
:103F0000002A03DA504244F40054059044F00204BD
:103F1000761C30782E2816D116F8010F44F00404D0
:103F20002A280DD06FF02F023078A0F13003092B32
:103F300009D807EB870302EB4303C718761CF3E7A6
:103F400059F8047B761C30786C280FD006DC4C289E
:103F500017D068280DD06A2814D104E0742810D036
:103F60007A280FD10DE044F400140AE044F48014E0
:103F700001E044F440147278824202D104F58014C6
:103F8000761C761C307866280BD013DC582877D046
:103F900009DC002875D04528F6D04628F4D04728FB
:103FA0001AD19DE118E0632835D0642879D06528BE
:103FB00012D195E1702873D008DC6728F1D0692808
:103FC0006FD06E280DD06F2806D1B5E073282CD0A5
:103FD000752875D0782874D05A46179990476D1C6B
:103FE00075E1C4F30250022809D003280DD0D9F896
:103FF000001004280DD00D6009F1040967E1D9F81B
:104000000010EA17C1E90052F6E7D9F800100D8058
:10401000F2E70D70F0E719F8041B8DF8001000208E
:104020008DF80100EA46012003E059F804AB4FF097
:10403000FF3061074FF0000102D40DE008F10101EB
:104040008846B9420FDA8045F8DB1AF808100029D3
:10405000F4D108E008F1010188468142FADB1AF840
:1040600008100029F6D105985B46A0EB0807214609
:104070003846179A00F094FA284400EB080507E048
:104080004DE029E10DE01AF8010B5A4617999047C7
:10409000B8F10108F7D25B4621463846179A13E17A
:1040A00042E00A220092C4F302524FF0000A022AB0
:1040B00008D059F804CB032A4FEAEC710AD00DE07E
:1040C00029E02AE009F1070121F00702F2E802C124
:1040D000914609E00FFA8CFC4FEAEC71042A03D1F7
:1040E0004FFA8CFC4FEAEC71002907DA0A460021EE
:1040F000DCF1000C61EB02012D2202E0220504D567
:104100002B228DF80420012203E0E20701D02022B7
:10411000F7E7904659E00A2102E010220DE0102155
:104120004FF0000A00910BE010224FF0000A44F01B
:1041300004040827009203E008224FF0000A0092CE
:10414000C4F30252022A05D059F804CB0021032AF5
:1041500008D009E009F1070121F00702F2E802C1E5
:10416000914605E01FFA8CFC042A01D10CF0FF0CEB
:104170004FF00008220728D5702806D0009B83F056
:10418000100353EA0A0305D00EE040228DF8042004
:10419000012208E05CEA010206D030228DF80420FA
:1041A0008DF8050002229046009B83F0080353EA35
:1041B0000A030AD15CEA010201D1620705D5302267
:1041C0008DF804204FF001087F1E582804D034A039
:1041D00003900EA802900DE036A0F9E75346604622
:1041E000009AFCF7F5FA84460398825C0298401E18
:1041F000029002705CEA0100F0D1029806A9081A48
:1042000000F1200A600702D524F4803400E0012781
:10421000574502DDA7EB0A0000E0002000EB0A0191
:10422000009005984144401A0590E00306D45B468F
:104230002146179A059800F0B3F90544002706E0D7
:1042400001A85A46C05D179990476D1C7F1C4745D1
:10425000F6DBE0030CD55B462146179A059800F083
:104260009FF9054404E030205A46179990476D1C89
:104270000099481E00900029F5DC08E00298029998
:104280005A460078491C0291179990476D1CBAF163
:104290000001AAF1010AF1DC65E100000928010032
:1042A00030313233343536373839616263646566AC
:1042B000000000003031323334353637383941426E
:1042C000434445460000000000F058F90544761CC0
:1042D000307800287FF4ECAD19B02846BDE8F08FA7
:1042E000620700D4062709F1070222F0070CFCE858
:1042F0000223E14603F000485FEA080C02D00FF207
:10430000702C0DE05FEA045C02D50FF2682C07E028
:104310005FEAC47C02D00FF2602C01E0AFF2700CB7
:104320004FF0FF3823F00043CDF850C065280CD083
:1043300006DC452809D046281DD047283DD13DE060
:10434000662818D067287ED138E00021112F01DBC4
:10435000112000E0781CCDE9000106A90EA8FFF7A6
:10436000EDFCDDE90F010E9A03910021009207F1A7
:10437000010A04914DE04FF000400097CDE9011093
:1043800006A90EA8FFF7DAFCDDE90F0203920E9BE7
:1043900011990022DDF80CA00093049211B9791C48
:1043A00000EB010AB7EB0A0004D4C0F1FF3007F1BB
:1043B000010A0490AAEB0700019044E0012F00DA03
:1043C00001270021112F01DD112000E03846CDE941
:1043D000000106A90EA8FFF7B1FCDDE90F010E9A56
:1043E0000391002104910092BA4621070CD403994D
:1043F000514500DA8A46BAF1010F05DD009AAAF1AB
:104400000101515C302908D0B84202DA10F1040FE2
:1044100006DA0121CDE9011015E0AAF10101E9E771
:10442000002805DC049901440491AAEB000102E094
:10443000411C514500DD8A460499401A401C0190F8
:104440004FF000400290200704D40198504501DB52
:10445000CDF8048000208DF84F0002980DF14F0731
:10446000B0F1004F25D02B200E9002984FF002089B
:1044700000280CDA404202902D200E9007E00A211D
:104480000298FCF78FF93031029007F8011DB8F15E
:104490000001A8F10108F2DC02980028EFD1791E92
:1044A0000E980870307800F0200040F0450007F8C2
:1044B000020D12A8C01B00F107081498007800B183
:1044C000012000EB0A01019801EBE07105984144DD
:1044D000401A401E0590E00306D45B462146179A19
:1044E000059800F05DF805441498007818B15A4614
:1044F000179990476D1CE00324D55B462146179A17
:10450000059800F04DF805441CE00498002807DBEE
:10451000DDE90301884203DD0098405C179901E062
:10452000179930205A469047049805F10105401C20
:1045300004900198401E019004D12E205A461799EC
:1045400090476D1CBAF10001AAF1010ADDDC05E01B
:1045500017F8010B5A46179990476D1CB8F10001E6
:10456000A8F10108F4DC5B462146179A0598ABE6F2
:104570002D0000002B000000200000002DE9F0417C
:10458000044600251E461746880404D405E0394633
:104590002020B0476D1C641EF9D52846BDE8F08187
:1045A0002DE9F041044600251E469046C80301D57A
:1045B000302700E02027880404D505E0414638462E
:1045C000B0476D1C641EF9D52846BDE8F081000097
:1045D0000EB500200090019002902048204908600C
:1045E00081151F48816001210173002101754FF47D
:1045F0006021C16100201A49486005211848016105
:10460000FCF7E6FB002000900120019000200290C2
:1046100069461348FCF710FB01200090022001902E
:1046200069460F48FCF708FB022000900320019028
:1046300069460B48FCF700FB032000900420019022
:1046400069460748FCF7F8FA04200090052001901D
:1046500069460348FCF7F0FA0EBD00000024014053
:104660009803002000B585B00020019002900390CF
:10467000049000BF5A48806940F40070584988612E
:104680000846806900F40070009000BF00BF00BFC2
:1046900000BF0846806940F00400886108468069D0
:1046A00000F00400009000BF00BF00BF00BF00BFCB
:1046B0000846806940F0040088610846806900F07F
:1046C0000400009000BF00BF00BF00BF00BF08464D
:1046D000806940F0040088610846806900F00400A9
:1046E000009000BF00BF00BF00BF00BF0846806948
:1046F00040F0040088610846806900F004000090E2
:1047000000BF00BF00BF00BF00BF0846806940F087
:10471000040088610846806900F00400009000BF32
:1047200000BF00BF012001900320029000200390F1
:1047300001A92C48FDF752F80220019001A929484F
:10474000FDF74CF80420019001A92648FDF746F832
:104750000820019001A92348FDF740F8102001909E
:1047600001A92048FDF73AF8FFF732FF00BF1C48C7
:10477000406940F001001A4948610846406900F06C
:104780000100009000BF00BF1748184908600020D2
:1047900048600021154881608021C16049000161A5
:1047A0008900416120218161C901C161FCF782FF5B
:1047B00000BF0E480E49086208460C49486200BF17
:1047C000012202210B20FDF712FA0B20FDF7FFF961
:1047D000FA2208490648FCF7ADFB05B000BD000011
:1047E000001002400008014008000240C8030020F9
:1047F000980300200C04002038B505460C4600BF85
:104800002048806940F400601E498861084680693C
:1048100000F40060009000BF00BF1B481B49086007
:104820000846446000218160C56001618161416189
:10483000FDF7AFFF602016490860002048608860DF
:10484000C86008614861886100221048FDF723FFB5
:1048500004220F490D48FDF71EFF08220C490B48A2
:10486000FDF719FF00210948FEF78EF804210748DB
:10487000FEF78AF808210548FEF786F80348FDF799
:10488000F5FD38BD00100240002C0140B0010020B1
:10489000F801002070B504460D461646012C06D1DD
:1048A00003498D713046FBF706FF0149488270BD10
:1048B0001C00002030B585B004460D4600BF00BF87
:1048C0001348806940F0800011498861084680697A
:1048D00000F08000009000BF00BF00BF08150190ED
:1048E00001200290002003900220049001A90948B1
:1048F000FCF774FF00F0EEFC29462046FFF77CFF32
:10490000472140F2E73000F01BF805B030BD000051
:1049100000100240001C014010B501F0BFFB002058
:104920000549087001F018FC00200349C8600349DC
:1049300008600149488210BD1C0000206C00002066
:1049400070B505460C464FF080400949086008469E
:10495000446000218160C5600161FDF733FD0448BA
:10496000FDF784FD6FF0010001490968086170BD21
:104970001402002070B586B00646142101A8FBF78A
:10498000FAFB002512E000240DE001A850F82400F5
:1049900005EB85012144114A32F81110084401A9A0
:1049A00041F82400641C052CEFDB6D1C322DEADB82
:1049B00000240EE001A850F824003221B0FBF1F0F1
:1049C00001A941F8240001A830F8240026F81400B9
:1049D000641C052CEEDB06B070BD00000C0400204A
:1049E00010B50246F0205379062B3BDC9378062B5A
:1049F00038DC537903F00F04917864F31F111A4BDC
:104A00001B788B4213D0184B5B788B420FD0164B20
:104A10009B788B420BD0144BDB788B4207D0124B28
:104A20001B798B4203D0104B5B798B4201D1012063
:104A300018E00E4B1B788B4213D00C4B5B788B42EB
:104A40000FD00A4B9B788B420BD0084BDB788B4204
:104A500007D0064B1B798B4203D0044B5B798B420A
:104A600000D1022010BD0000A46200089862000876
:104A700070B502460C46FF25FF2309E012F8010B32
:104A800080EA03010648405C80EA05030548455C6E
:104A90002000A4F10106B4B2F0D143EA052070BDB4
:104AA000C0620008C063000810B5024800F004F8B6
:104AB00010BD0000B806002070B50446D825294670
:104AC0002046FBF758FB70BD0C480078012813DB2B
:104AD0000A48007803280FDC09480078401C084980
:104AE000087008460078022803DB0020087003499C
:104AF00008700248007870470020FCE7900700200B
:104B0000A000002030B5A0F1200404EB44050B4CBC
:104B100054F825400C60A0F1200404EB4405074C38
:104B200004EB850464681460A0F1200404EB4405E0
:104B3000024C04EB8504A4681C6030BDF80600201C
:104B400070B504460E4615460348C46006614561CB
:104B5000142100F07DF870BDB80600202DE9F04169
:104B600004460D4616461F46DDF81880104845607D
:104B7000A4F1200000EB40010E4840F82160A4F1B0
:104B8000200000EB40010B4800EB81004760A4F1DE
:104B9000200000EB4001074800EB8100C0F80880CE
:104BA00021460448403800F053F8BDE8F081000089
:104BB00090070020F806002010B50446034880F84E
:104BC0003440182100F044F810BD0000B806002061
:104BD00010B5044602480470102100F039F810BDE9
:104BE000B806002010B504462046FBF74BFD00B286
:104BF000034948801121024800F02AF810BD000046
:104C0000B806002070B505460C4603488461C561AE
:104C1000152100F01DF870BDB806002010B504463F
:104C200002488460132100F013F810BDB80600207C
:104C300070B505460C46681E044921F81040302125
:104C40000248B83800F004F870BD0000700700207A
:104C50002DE9F0418AB005460E46C5208DF80000CA
:104C60000224A6F1100021287ED2DFE800F0111AFC
:104C70002B4368BEDBFDFCFBFA7D7D7D7D7DF9F875
:104C8000F7F6F5F4F3F2F1F07D7D7D7D7D7DEF00AB
:104C90008DF801602A782046611CCCB20DF8002006
:104CA00036E28DF801606888C0F307222046611C57
:104CB000CCB20DF80020AA782046611CCCB20DF8C9
:104CC000002025E28DF80160287900F008022046D6
:104CD000611CCCB20DF80020E888020A2046611C55
:104CE000CCB20DF80020AA792046611CCCB20DF898
:104CF00000200DE28DF80160A868FBF7DCFCC0B273
:104D0000652190FBF1F201FB1200C2B22146601C4A
:104D1000C4B20DF80120F949A868FBF78FFA804664
:104D2000FBF7C9FC80B2642190FBF1F201FB120099
:104D3000C2B22046611CCCB20DF80020E8E18DF82B
:104D40000160EF49E868FBF779FA8046FBF79AFCC7
:104D5000C0F307222046611CCCB20DF80020E849C0
:104D6000E868FBF76BFA00E0CEE18046FBF78AFCCF
:104D7000C2B22046611CCCB20DF80020E04928697F
:104D8000FBF75CFA8046FBF77DFCC0F30722204668
:104D9000611CCCB20DF80020D9492869FBF74EFA06
:104DA0008046FBF76FFCC2B22046611CCCB20DF806
:104DB0000020D3496869FBF741FA8046FBF762FCA3
:104DC000C0F307222046611CCCB20DF80020CC496C
:104DD0006869FBF733FA8046FBF754FCC2B2214600
:104DE000601CC4B20DF8012092E18DF80160C54944
:104DF000A869FBF7CBF98046FBF75DFCC2B2204601
:104E0000611CCCB20DF80020BE49E869FBF7BEF981
:104E10008046FBF750FCC2B22046611CCCB20DF8B4
:104E2000002075E18DF8016020356868020E20468B
:104E3000611CCCB20DF800206868C0F30740C2B214
:104E40002046611CCCB20DF800200EE038E1EAE00B
:104E5000E8E0E6E0E4E0E2E0E0E0DEE0DCE0DAE04A
:104E6000D8E0B9E09AE08FE037E0A888C0F30720E7
:104E7000C2B22046611CCCB20DF800202A7920462F
:104E8000611CCCB20DF8002029792868000E40EA98
:104E90000120C2B22046611CCCB20DF80020287956
:104EA0000204296842EA1140C2B22046611CCCB219
:104EB0000DF8002028882979000A40EA0160C2B272
:104EC0002046611CCCB20DF8002015F820292046A0
:104ED000611CCCB20DF800201AE18DF80160A86ABF
:104EE000FBF7D0FBC2B22046611CCCB20DF800200B
:104EF0008249A86AFBF7A2F98046FBF7C3FB00B220
:104F0000642190FBF1F201FB1200C2B22046611C49
:104F1000CCB20DF80020E86AFBF7B4FBC2B2204621
:104F2000611CCCB20DF800207449E86AFBF786F9E1
:104F30008046FBF7A7FB00B2642190FBF1F201FB76
:104F40001200C2B22046611CCCB20DF80020286BC2
:104F5000FBF798FBC2B22046611CCCB20DF80020D2
:104F60006649286BFBF76AF98046FBF78BFB00B2BA
:104F7000642190FBF1F201FB1200C2B22046611CD9
:104F8000CCB20DF80020C3E08DF8016095F8342014
:104F90002046611CCCB20DF80020B9E08DF801600C
:104FA0005749A86BFBF74AF98046FBF76BFBC0F348
:104FB00007222046611CCCB20DF800205049A86B96
:104FC000FBF73CF98046FBF75DFBC2B22146601C53
:104FD000C4B20DF801209BE08DF801604749E86BF1
:104FE000FBF72CF98046FBF74DFBC0F30722204668
:104FF000611CCCB20DF800204049E86BFBF71EF9AC
:105000008046FBF73FFBC2B22146601CC4B20DF8DC
:1050100001207DE000BF00BF00BF00BF00BF00BF98
:1050200000BF00BF00BF8DF80160002745E0A6F17A
:10503000200000EB400105F1400000EB8100002161
:1050400001EB8701425C2046611CCCB20DF80020C8
:10505000A6F1200000EB400105F1400000EB8100CB
:10506000012101EB8701425C2046611CCCB20DF8A6
:105070000020A6F1200000EB400105F1400000EB0C
:105080008100022101EB8701425C2046611CCCB209
:105090000DF80020A6F1200000EB400105F14000D2
:1050A00000EB8100032101EB8701425C2146601C7B
:1050B000C4B20DF80120781CC7B2032FB7DB27E07C
:1050C0008DF80160002715E005F1B80030F81700F1
:1050D000C0F307222146601CC4B20DF8012005F17F
:1050E000B80010F817202046611CCCB20DF8002043
:1050F000781CC7B2102FE7DB0AE000000000C842AE
:1051000000007A4400004842FE208DF8010000BFF4
:1051100000BF9DF80100FE2802D10AB0BDE8F08171
:1051200021466846FFF7A4FC80464FEA1822204635
:10513000611CCCB20DF8002008F0FF022046611C73
:10514000CCB20DF800205C222046611CCCB20DF8D8
:1051500000204FF6FF73224669460348FEF702FA25
:1051600000BF00BFD9E700007001002010B5044661
:1051700000204FF0E0210861FDF7F4F82046E11728
:1051800004EB5171C1F3CF01014A118010BD000041
:105190000400002070B504464FF47A7094FBF0F5DB
:1051A00094FBF0F100FB114603E0074800F00EF815
:1051B0006D1E002DF9D12EB14FF47A7106FB01F06E
:1051C00000F004F870BD000040420F000146114A93
:1051D00012884A434FF0E0235A6100229A611A462E
:1051E000126942F001021A6100BF4FF0E02210691B
:1051F00000F001021AB100F48032002AF5D04FF01D
:10520000E022126922F001024FF0E0231A6100222D
:105210009A6170470400002000BF054A126802F03E
:105220004002002AF9D0C2B2014B1B1D1A60704720
:10523000003801402DE9F05F81464846FBF7FFF951
:1052400083461E49FAF7FAFF80464FF08B41FBF781
:1052500027F807461A49FBF723F806463146174850
:10526000FBF71EF805461649FAF7E2FF8246154994
:105270005046FBF715F804462046FBF74FFA074661
:1052800000F0DCF90546FBF75CFA04460E492046BF
:10529000FBF706F804460D492046FAF777FF044667
:1052A00021464FF07E50FAF7FBFF0446084920469E
:1052B000FAF7BEFF04462046BDE8F09F3333534063
:1052C00000E0924500401C46004053450FCF5B3B39
:1052D0003393884300B585B000BF2048806940F013
:1052E00010001E4988610846806900F01000009097
:1052F00000BF00BF00BF0846806940F01000886111
:105300000846806900F01000009000BF00BF00BF99
:105310000846806940F0100088610846806900F006
:105320001000009000BF00BF4020019000200290BC
:105330000120039001A90A48FCF750FA802001904F
:1053400001A90748FCF74AFA4FF48070019001A9BF
:105350000348FCF743FA05B000BD0000001002400E
:105360000010014070B50546002440210E48FCF7AE
:10537000D5FB08B144F0010480210B48FCF7CEFBBB
:1053800008B144F002044FF480710748FCF7C6FBF3
:1053900028B144F0040401200449C87002E0002050
:1053A0000249C870204670BD001001401C0000205A
:1053B00070B504460D4620682946FAF739FF606249
:1053C000616AA069FAF73AFFE060E169606AFAF79A
:1053D00035FF06462169FAF7D9FE2061616B206925
:1053E000FBF7D6F901D2606B00E020692061216BE8
:1053F0002069FBF7C3F901D2206B00E0206920612E
:10540000A16A606AFAF714FF0646216AFAF716FFE6
:1054100060612169E068FAF7B9FE06466169FAF74A
:10542000B5FE6060E16B6068FBF7B2F901D2E06B3A
:1054300000E060686060A16B6068FBF79FF901D2D3
:10544000A06B00E060686060606AA0626068FBF763
:1054500019F970BD00B585B000BF00BF284880694C
:1054600040F04000264988610846806900F040000D
:10547000009000BF00BF00BF00BF00BF08468069AA
:1054800040F0400088610846806900F040000090CC
:1054900000BF00BF00BF00BF00BF0846806940F0EA
:1054A000040088610846806900F00400009000BF95
:1054B00000BF00BF10200190002002900120039047
:1054C0000320049001A90F48FCF788F908200190F7
:1054D00000200290012003900320049001A90948B4
:1054E000FCF77CF90120019000200290022003903B
:1054F0000320049001A90448FCF770F905B000BD31
:1055000000100240001801400008014070B5044638
:10551000002514B10120224908702148007848B3C1
:1055200010212048FCF7FAFA50B108211D48FCF779
:10553000F5FA28B101211C48FCF7F0FA012819D12D
:105540000A20FFF727FE0020154908701021154892
:10555000FCF7E4FA00B9012508211248FCF7DEFA4D
:1055600000B9022501211048FCF7D8FA012815D10D
:10557000032513E010210B48FCF7D0FA01280DD1C8
:1055800008210848FCF7CAFA012807D1012106487A
:10559000FCF7C4FA10B9012001490870284670BD13
:1055A00096000020001801400008014000B585B0B9
:1055B00000BF00BF1E48806940F008001C49886198
:1055C0000846806900F00800009000BF00BF00BFDF
:1055D00000BF00BF0846806940F04000886108466F
:1055E000806900F04000009000BF00BF00BF202095
:1055F00001900120029003900320049001A90D481E
:10560000FCF7ECF82020019001A90B48FCF7E6F824
:1056100000BF012220210748FCF792FA00BF00BF1B
:10562000012220210448FCF78BFA00BF05B000BD21
:1056300000100240000C0140001801402DE9F04D1F
:10564000C84A002490B0914205DA21F00043934209
:1056500001D805D120B110B0BDE8F04DFEF750BB28
:10566000B1F5801F1BDA53EA000209D0002911DAD4
:105670000120FEF75DFB10B0BDE8F04DFEF743BB27
:105680000220FEF755FBFEF733FB10B081F000411E
:10569000BDE8F08D6FF035043622FBF78FF904EB8F
:1056A0002152C1F31308B049A2F2FF33414401F47F
:1056B000801282F07F6103EB225281F04051009210
:1056C00041EA08010022A94BFAF7C9FE044608F195
:1056D0000200A74EC0F313000D467E44032867D294
:1056E000D6E900232046FBF799F91ED1009800283F
:1056F00002BFD6E9000110B0BDE8F08DFAF7A4FFB3
:1057000007460C469B4A9C4BFAF7AFFE06460D46F1
:105710009A4A9B4B38462146FAF7A7FE10B032460C
:105720002B46BDE8F04DFAF7F9BD4FF05532954BD9
:1057300020462946FAF799FE0022934BFAF792FE8B
:1057400006460F4622462B4610461946FAF78DFEAE
:1057500032463B46FAF789FE064600980F46F0B1FE
:10576000FAF772FF80468A46824A834BFAF77DFE3B
:1057700032463B46FAF776FE22462B46FAF76FFE94
:1057800005460C467D4A7E4B40465146FAF76DFE73
:1057900010B02A462346BDE8F04DFAF760BE0B462E
:1057A00010B0324620462946BDE8F04DFAF757BE04
:1057B00000224FF080432046FAF7B0FD02460B4628
:1057C00020462946FAF7C3FE06460F460098FAF728
:1057D0003BFFCDE9040132463B4610463946FAF715
:1057E00044FE0C9069480C9A4044019009910B4684
:1057F0001046FAF73AFE8246024665488B46C8F1E3
:1058000051080B4608F5D72803217844FEF71AFA09
:1058100052465B46FAF729FE0A905E480D915246C1
:105820005B4604217844FEF70DFA099B0C9AFAF7BF
:105830001CFE844601980D9B40EA080860460A9ABF
:10584000FAF76CFD83460891B8F1000F4EDD4FF07A
:10585000FF3220462946FBF7B1F822462B46FAF7DD
:1058600004FE804600988A4660B3DDE90401414A9F
:10587000414BFAF7FAFD099100905A4640465146CD
:10588000089BFAF74BFD32463B46FAF7EEFD099BC3
:10589000009AFAF743FD42465346FAF7E3FD2246E3
:1058A0002B46FAF7DCFD04460D46DDE90401334AD8
:1058B000334BFAF7DAFD10B022462B46BDE8F04D27
:1058C000FAF7CDBD5A464046089BFAF727FD324607
:1058D0003B46FAF7CAFD42465346FAF7C3FD10B0FD
:1058E00022462B46BDE8F04DFAF7BCBD009840B308
:1058F000DDE904011F4A204BFAF7B7FD80468A46CE
:105900005A4620462946089BFAF7A9FD32463B46EF
:10591000FAF7ABFD42465346FAF7A1FD22462B4665
:10592000FAF79DFD04460D46DDE90401134A144BC8
:10593000FAF79BFD10B022462B46BDE8F04DFAF772
:105940008EBD0B465A4620462946FAF788FD324658
:105950003B46FAF78AFD10B022462B46BDE8F04DD3
:10596000FAF780BD0000F07F645F09000000F03F9F
:105970001A0E0000763C7935EF39EA3D0000E0FE72
:10598000422EE63F5555D53F0000E03F86EBF9FF3C
:10599000B20C0000B00C000010B50F48408A0F494F
:1059A0000968486300200D49096888630B49096844
:1059B000C86300224FF480710948FCF7C1F8012246
:1059C00091020748FCF7BCF800224FF480510448CC
:1059D000FCF7B6F810BD00001C000020B00100204C
:1059E0000018014010B50F48408A0F490968486304
:1059F00000200D49096888630B490968C8630022C3
:105A00004FF480710948FCF79BF800224FF4806145
:105A10000648FCF795F8012211030448FCF790F8BA
:105A200010BD00001C000020B00100200018014043
:105A300010B500200E49096848630E48408A0C4999
:105A40000968886300200A490968C86301221102B5
:105A50000948FCF775F800224FF480610648FCF70E
:105A60006FF800224FF480510348FCF769F810BD2D
:105A7000B00100201C0000200018014010B50020DB
:105A80000E49096848630E48408A0C4909688863D2
:105A900000200A490968C86300224FF48071094850
:105AA000FCF74EF800224FF480610648FCF748F8F6
:105AB000012211030348FCF743F810BDB001002098
:105AC0001C0000200018014010B500200E49096894
:105AD00048630D49096888630C48408A0A49096887
