:020000040800F2
:10000000B0B4002075020008010C0008DD090008EA
:10001000150B0008910800081D19000800000000D9
:10002000000000000000000000000000DD010008EA
:10003000A90800080000000021020008A91100081A
:100040008F0200088F0200088F0200088F0200084C
:100050008F0200088F0200088F0200088F0200083C
:100060008F0200088F0200088F0200088F0200082C
:100070008F0200088F0200088F0200088F0200081C
:100080008F0200088F0200088F0200088F0200080C
:100090008F0200088F0200088F0200088F020008FC
:1000A0008F0200088F0200088F0200088F020008EC
:1000B0008F0200080D1200088F0200088F0200084E
:1000C0008F0200088F0200088F0200088F020008CC
:1000D0008F020008C515000829160008FD16000843
:1000E0008F0200088F0200088F0200088F020008AC
:1000F0008F0200088F0200088F0200088F0200089C
:100100008F0200088F0200088F0200088F0200088B
:100110008F0200088F0200088F0200088F0200087B
:100120008F0200088F0200088F0200088F0200086B
:1001300000F002F800F042F80AA090E8000C8244B7
:100140008344AAF10107DA4501D100F037F8AFF294
:10015000090EBAE80F0013F0010F18BFFB1A43F0A5
:10016000010318471C3E00003C3E0000103A24BF2B
:1001700078C878C1FAD8520724BF30C830C144BF0C
:1001800004680C607047000000230024002500264E
:10019000103A28BF78C1FBD8520728BF30C148BFEA
:1001A0000B607047642900F0BD80732900F08E82D7
:1001B000002070471FB51FBD10B510BD00F020FB1B
:1001C0001146FFF7F7FF01F035FC00F03EFB03B4EA
:1001D000FFF7F2FF03BC01F0A9FB0000224B1968F6
:1001E0000868B0E8F00F80F30988BFF36F8F4FF015
:1001F000000080F311884EF00D0E704700000000E3
:1002000006480068006880F3088862B661B6BFF3EC
:100210004F8FBFF36F8F00DF00BF00BF08ED00E01E
:10022000EFF30980BFF36F8F0F4B1A6820E9F00FCF
:10023000106008B54FF0500080F31188BFF34F8F66
:10024000BFF36F8F02F042FF4FF0000080F3118880
:10025000BDE8084019680868B0E8F00F80F3098825
:10026000BFF36F8F704700BF98000020EFF3058049
:10027000704700000948804709480047FEE7FEE74D
:10028000FEE7FEE7FEE7FEE7FEE7FEE7FEE7FEE746
:1002900004480549054A064B70470000BD11000897
:1002A00031010008B0AE0020B0B40020B0B0002092
:1002B000B0B00020704700000FB4044910B503AA85
:1002C000029800F007FA10BC5DF814FB60000020F3
:1002D00070B50C460546012A05D02878800600D561
:1002E000EA69002302E0012305E05B1C934202D28D
:1002F000E05C0028F9D1A869E618C01AA861286A4C
:10030000184428622846AFF3008004E0D5E90121B3
:1003100014F8010B9047B442F8D32846AFF300809D
:1003200070BD00002DE9F0410646002410687529D3
:10033000314616A510D0AFF30080002802DA404203
:1003400013A507E031688A0701D512A502E0490725
:1003500004D511A5012401E0AFF3008000210A2299
:1003600006F1240709E0B0FBF2FCB0FBF2F302FB5C
:100370001C00303078541846491C0028F3D123461D
:100380002A463046BDE8F04100F01DB900000000EB
:100390002D0000002B000000200000002DE9F05F80
:1003A000894604464FF0000ADFF874B1FB44C0F8F8
:1003B00020A02046E1688847002874D0252806D070
:1003C000D4E901219047206A401C2062F1E7002611
:1003D0005F462046E16888472028054607DB312D27
:1003E00005D2781910F8200C08B10643F1E7B007E0
:1003F00001D526F00406C4F81CA00027C4F818A0F4
:100400002A2D09D0284601F08AFA38B304EB870870
:10041000303DC8F8185019E059F8041B204604EB89
:1004200087029161E1688847012F054618D1E0698C
:10043000002820DA26F020061DE0D8F8180000EB8E
:10044000800005EB40003038C8F818002046E1680D
:100450008847054601F063FA0028EED1012F0AD043
:100460002E2D08D12046E16888477F1C0546022FC3
:1004700046F02006C4DBA069002803DA404246F0BB
:100480000106A061F00701D026F010066C2D0BD0FC
:10049000682D09D04C2D39D06A2D35D0742D35D02A
:1004A0007A2D33D016E038E0E1682F4620468847A1
:1004B000B842054609D16C2F26D04FF48060E16820
:1004C000064320468847054604E06C2F1AD04FF4B7
:1004D000807006430DB3A5F14100192802D82035DC
:1004E00046F400664A462946204626604E46FFF7F7
:1004F00059FE80B101280BD0F61D26F0070000F14F
:10050000080956E74020E4E78020D8E70020D6E736
:1005100006F104094DE7284652E7206ABDE8F09F3E
:10052000BC3B0000032A40F2308010F0030C00F0C6
:10053000158011F8013BBCF1020F624498BF11F81D
:1005400001CB00F8013B38BF11F8013BA2F10402D6
:1005500098BF00F801CB38BF00F8013B11F003034E
:1005600000F0CA80083AC0F0088051F8043B083A0D
:1005700051F804CBA0E80810F5E7121D5CBF51F854
:10058000043B40F8043BAFF30080D20724BF11F8CE
:10059000013B11F801CB48BF11F8012B24BF00F833
:1005A000013B00F801CB48BF00F8012B704702F077
:1005B000FF0343EA032242EA024200F0D1B8704747
:1005C0007047704770472DE9F0470D4699469246AF
:1005D000044600F124080168880604D5E06921F08A
:1005E0001001216000E00120A84201DD471B00E06E
:1005F0000027A1697A1902EB0900081AA061207886
:10060000C00602D42046AFF30080002608E0D4E9FB
:1006100001211AF806009047206A401C761C2062CF
:100620004E45F4DB2078C0060AD52046AFF30080A3
:1006300006E0D4E9012130209047206A401C206266
:10064000381EA7F10107F4DC07E0D4E9012118F80E
:1006500005009047206A401C2062281EA5F1010574
:10066000F3DC2046AFF300802078000602D502209C
:10067000BDE8F0870120FBE701694A1C02610878A8
:10068000704700B58FB0CDE90131002105910549D2
:100690007944CDE9031011466846FFF77FFE0FB09D
:1006A00000BD0000E5FFFFFF10B5436913B1AFF3D4
:1006B000008001E0FFF70CFE012010BD127800F170
:1006C00024010A7000224A700122EDE711684FF000
:1006D000FF32E9E7074B70B50D467B44FFF7D1FFCA
:1006E0000446284600F05CF810B14FF0FF3070BDB2
:1006F000204670BD0B13000010B5203AC0F00B80EF
:10070000B1E81850203AA0E81850B1E81850A0E815
:100710001850BFF4F5AF5FEA027C24BFB1E818506F
:10072000A0E8185044BF18C918C0BDE810405FEADF
:10073000827C24BF51F8043B40F8043B08BF70475B
:10074000D20728BF31F8023B48BF11F8012B28BF60
:1007500020F8023B48BF00F8012B70474FF0000221
:100760000429C0F0128010F0030C00F01F80CCF1BF
:10077000040CBCF1020F18BF00F8012BA8BF20F831
:10078000022BA1EB0C0100F011B85FEAC17C24BF81
:1007900000F8012B00F8012B48BF00F8012B70472F
:1007A000007B00F0800070474FF0000200B5134658
:1007B00094469646203922BFA0E80C50A0E80C5081
:1007C000B1F12001BFF4F7AF090728BFA0E80C5032
:1007D00048BF0CC05DF804EB890028BF40F8042B2B
:1007E00008BF704748BF20F8022B11F0804F18BF98
:1007F00000F8012B70470000004870474CAE002005
:100800007546FFF7F9FFAE4605006946534620F0EE
:100810000700854618B020B5FFF73AFDBDE8204037
:100820004FF000064FF000074FF000084FF0000BAC
:1008300021F00701AC46ACE8C009ACE8C009ACE85F
:10084000C009ACE8C0098D4670470446AFF300808C
:100850002046FFF7BCFC000038B50121082000F05D
:10086000A9FB4FF48074ADF8004010208DF8030010
:100870000320064D8DF802006946284600F050F826
:100880002146284600F0A1F838BD0000000C0140C8
:10089000FEE7000003480022026042604721312049
:1008A00000F0CEBC38000020704700007FB5012169
:1008B000042000F07FFB0121084600F06FFB1020B0
:1008C000ADF800008DF80300144D03248DF80240AC
:1008D0006946284600F024F81021284600F075F8F3
:1008E0000221ADF8001028208DF803008DF8024099
:1008F0006946284600F014F84FF6FF70ADF808007E
:100900004720ADF804000020ADF80A00ADF806005D
:1009100001A9E80400F008FE7FBD000000080140C6
:10092000F0B5CC78002204F00F03E40601D58C78F2
:1009300023430C784FF00F0C14F0FF0F4FF0010E13
:100940001BD005680E880EFA02F42640A64210D18C
:1009500096000CFA06F725EA070703FA06F5CE78A3
:100960003D43282E02D0482E02D002E0446100E030
:100970000461521C082AE5D305600A88FF2A1CD9A5
:100980004468002202F108060EFA06F50E882E4091
:10099000AE420ED196000CFA06F7BC4303FA06F7F6
:1009A000CE783C43282E00D14561CE78482E00D128
:1009B0000561521C082AE5D34460F0BD02460020C0
:1009C00092680A4200D0012070474161704701617E
:1009D00070470AB10161704741617047FEE700004E
:1009E00008B50121442000F0E5FA1820ADF8000018
:1009F00048208DF8030069460648FFF791FF012063
:100A0000ADF8000028208DF8030069460248FFF782
:100A100087FF08BD00180140000801402DE9F041A2
:100A2000254C264F264D012608B1267001E020787E
:100A300078B110212846FFF7C1FF88B10821284668
:100A4000FFF7BCFF60B101213846FFF7B7FF01286F
:100A500006D010212846FFF7B1FF01281DD028E05D
:100A60000A2000F089FF0020207010212846FFF79F
:100A7000A5FF58B108212846FFF7A0FF48B1012182
:100A80003846FFF79BFF012805D012E00120BDE8A2
:100A9000F0810220FBE70320F9E708212846FFF751
:100AA0008DFF012805D101213846FFF787FF00B9E6
:100AB00026700020EBE70000400000200008014005
:100AC0000018014038B50121482000F073FA2024B5
:100AD000ADF8004010208DF8030003200B4D8DF879
:100AE000020069462846FFF71BFF20212846FFF732
:100AF0006EFFADF80040064C69462046FFF710FF38
:100B000020212046FFF763FF38BD0000000C0140A4
:100B100000180140FEE70000F0B50E46074689B018
:100B20000121022000F03AFA0121042000F042FAEB
:100B30000121082000F03EFAC020ADF81000182571
:100B40008DF8135003248DF8124004A92948FFF7AB
:100B5000E7FEADF810408DF813508DF8124004A94F
:100B60002548FFF7DDFE0024244DADF81870ADF8E0
:100B70001460ADF81A40ADF8164005A9284600F0FB
:100B8000D3FC6020ADF800000120ADF80200ADF804
:100B90000640ADF808406946284600F0B5FB6946B6
:100BA000284600F0F7FB6946284600F03DFC694600
:100BB000284600F07DFC0121284600F086FB082134
:100BC000284600F0E1FB0821284600F023FC08211C
:100BD000284600F067FC0821284600F09BFC012114
:100BE000284600F05BFB0121284600F064FB09B0B9
:100BF000F0BD000000080140000C0140000400406E
:100C00007047000030B50F23C27801780125F2B19A
:100C1000144A126801F1E02102F4E062C2F5E062D8
:100C2000120AC2F10404D3404278A24084781C40E6
:100C30001443220181F80024007800F01F018D4048
:100C40004009800000F1E020C0F8005130BD01F003
:100C50001F0085404809800000F1E020C0F8805165
:100C600030BD00000CED00E0024908430249086075
:100C7000704700000000FA050CED00E010B50021FF
:100C8000074C0A46002004EBC1131A54401CC0B2A2
:100C90008028FAD3491CC9B20829F3D310BD00003B
:100CA0000C01002038B500214FF47A720020401C5E
:100CB0009042FCD3491C9142F8D30121082000F056
:100CC00079F914208DF8030003208DF802004FF409
:100CD00080700A4CADF8000069462046FFF720FE00
:100CE0006115ADF8001069462046FFF719FE012096
:100CF00000F0B2F8012000F0B7F838BD000C014058
:100D000070B500240546802626FA04F0284000D05D
:100D1000012000F0A9F8012000F09EF8002000F06A
:100D20009BF8641CE4B2082CEED3012000F094F888
:100D3000BDE87040002000F08FB810B5012000F031
:100D400093F8012000F088F8002000F08DF8BDE84D
:100D50001040002000F080B810B5002000F084F8AA
:100D6000012000F079F8BDE81040012000F07CB8C7
:100D700010B5FFF797FFAE2000F07EF8D52000F009
:100D80007BF8802000F078F8A82000F075F83F206C
:100D900000F072F8D32000F06FF8002000F06CF83B
:100DA000402000F069F8A12000F066F8C82000F0AB
:100DB00063F8DA2000F060F8122000F05DF881207E
:100DC00000F05AF8CF2000F057F8D92000F054F87E
:100DD000F12000F051F8DB2000F04EF8302000F058
:100DE0004BF8A42000F048F8A62000F045F88D202C
:100DF00000F042F8142000F03FF8AF2000F03CF87B
:100E0000FFF73CFFBDE8104000F012B810B50C46EB
:100E100040F0B00000F030F8102040EA141000F06C
:100E20002BF804F00F00BDE8104000F025B80000DA
:100E300070B5084D002400212046FFF7E7FF05EBC1
:100E4000C410802100F029F8641CE4B2082CF2D30D
:100E500070BD00000C01002002464FF48071014873
:100E6000FFF7B7BD000C014002464FF40071014886
:100E7000FFF7AFBD000C014010B50446FFF75DFF62
:100E80007820FFF73DFF0020FFF73AFF2046FFF7ED
:100E900037FFBDE81040FFF75FBF70B50D4606464F
:100EA000FFF74BFF7820FFF72BFF4020FFF728FFCD
:100EB000002404E0305DFFF723FF641CE4B2AC4281
:100EC000F8D3BDE87040FFF747BF0000F0B5314EE2
:100ED00001273146B37849782F4D4A1C4FF0020C58
:100EE000D2B200242BB1012B1CD0022B2FD013B176
:100EF00003E06A2814D06B2837D0F378012B39D05F
:100F0000022B0CD135F81100F4706D2840D07470AC
:100F1000002025F81040401CC0B20728F9D3F0BDCE
:100F2000B77023E025F811007270072A01D26D28EE
:100F3000F5D105EB420086F802C030F80A1D318178
:100F4000418871818188B181C088F081F0BD35F818
:100F50001100B4706A281BD07470002025F810406E
:100F6000401CC0B20728F9D3F0BDF77025F8110076
:100F70007270F0BD25F811007270072A01D26D2839
:100F8000F7D186F803C034817481B481F481F0BD57
:100F90007470F0BD460000200C050020044A0029B2
:100FA000D16901D0014300E08143D1617047000065
:100FB00000100240044A0029916901D0014300E079
:100FC00081439161704700000010024030B5204A13
:100FD0005168204B11F00C0103D0042901D00829DD
:100FE00001D0036012E05168536801F470114FF0B2
:100FF000020413F4803F04EB914102D053689B0339
:1010000001D5154B00E0134B5943016051680F2384
:1010100003EA1111114B5C5C0168E14041605468C6
:10102000072505EA14241C5D21FA04F48460546841
:1010300005EAD4241B5DD940C1605268032303EA4A
:101040009232064B1B1F9A5CB1FBF2F1016130BD7D
:101050000010024000127A0000093D0068000020E4
:101060000CB50022264800920192016841F48031BB
:1010700001604FF4A063016801F40031019100990F
:10108000491C0091019911B900999942F3D1016865
:10109000890333D5012101911A490A6842F01002EF
:1010A0000A600A6822F003020A600A6842F002023B
:1010B0000A604168416041684160416841F4806173
:1010C0004160416821F47C114160416841F4E811BC
:1010D0004160016841F08071016001688901FCD5BF
:1010E000416821F003014160416841F00201416023
:1010F0004168C1F381010229FAD10CBD01920CBDF6
:10110000001002400020024070B5204E3146737935
:10111000097906F110054A1CD2B2002433B1012B23
:1011200008D0022B16D0032B21D005E0AA2803D12A
:1011300001230BE0552808D07471347100202C5421
:10114000401CC0B20728FAD370BD022373716854E3
:10115000327170BD68543271072A01D25528F8D116
:1011600003207071A81810F8020C307070BD681858
:1011700010F8010C7471AA283471F7D000202C5497
:10118000401CC0B20728FAD370BD00004600002002
:101190004FF0E0210428086903D020F00400086122
:1011A000704740F00400FAE710B502F023FC012874
:1011B00003D0BDE8104002F009B910BD0F4810B5CA
:1011C000016841F00101016041680D4A1140416030
:1011D00001680C4A11400160016821F4802101601E
:1011E000416821F4FE0141604FF41F018160FFF767
:1011F00037FF05494FF00060086010BD0010024045
:101200000000FFF8FFFFF6FE08ED00E010B50A4C05
:101210000121204600F064F8012807D107490A6837
:101220004868521C40F100000A6048602046BDE852
:101230001040012100F03CB80004004038000020BC
:101240007FB50D46044601210220FFF7A7FEADF849
:101250000440ADF8005000240F4DADF80640ADF845
:1012600002406946284600F05FF9012211462846EF
:1012700000F042F81D208DF80C0001218DF80D10B2
:101280008DF80E408DF80F1003A8FFF7BBFC01216D
:10129000284600F010F87FBD0004004000290188B6
:1012A00002D041F0800101E021F08001018070470F
:1012B000C943018270470029018802D041F0010131
:1012C00001E021F0010101807047002930F8441F3E
:1012D00002D041F4004101E0C1F30E0101807047EA
:1012E00002460020138A92890B4202EA010202D0D0
:1012F000002A00D001207047002A828901D00A43C9
:1013000000E08A438281704730B5028C22F00102EE
:101310000284028C8388048B22F0020224F073057D
:101320000C882C430D8915434A882A43114DA84245
:101330000BD0114DA84208D0104DA84205D0104D39
:10134000A84202D00F4DA8420DD122F008054A89CB
:1013500023F440732A4322F004058A882A438D89A6
:101360001D43CB892B4383800483C98881860284F3
:1013700030BD0000002C014000340140004001401D
:101380000044014000480140028B22F008020A4359
:101390000283704770B5028C22F010020284028C26
:1013A0008388048B0D8824F4E6464FF6FF7404EA24
:1013B000052535430E8922F0200204EA061616435D
:1013C0004A8804EA02123243104EB04202D0104E54
:1013D000B04215D122F080064A8923F4406304EA22
:1013E0000212324322F040068A8804EA0212324393
:1013F0008E8904EA86061E43CB8904EA83033343BD
:1014000083800583C9880187028470BD002C014058
:1014100000340140028B4FF6FF7322F4006203EAAE
:10142000012111430183704770B5028C22F4807250
:101430000284028C8388848B0D8824F073042543F6
:101440000E894FF6FF7422F4007204EA0626164352
:101450004A8804EA02223243104EB04202D0104EB3
:10146000B04215D122F400664A8923F4405304EABD
:101470000222324322F480668A8804EA022232433E
:101480008E8904EA06161E43CB8904EA031333430C
:1014900083808583C9888187028470BD002C0140C8
:1014A00000340140828B22F008020A438283704795
:1014B00070B5028C22F480520284058C8288838B62
:1014C0000C8823F4E6464FF6FF7303EA0424344302
:1014D00025F400560D8903EA053535434E8803EAA5
:1014E00006362E43094DA84202D0094DA84205D127
:1014F00022F480458A8903EA82122A438280848307
:10150000C988A0F84010068470BD0000002C01407E
:1015100000340140828B4FF6FF7322F4006203EA2D
:10152000012111438183704730B502881B4C1C4D4B
:10153000A0420DD0A8420BD0B0F1804F08D0194B7B
:10154000984205D0184B984202D0184B984203D1CC
:1015500022F070034A881A43154B984206D0154B67
:10156000984203D022F44073CA881A4302808A88C2
:1015700082850A880285A0420AD0A84208D00E4A75
:10158000904205D00D4A904202D00D4A904201D1BE
:10159000097A01860121818230BD0000002C0140C2
:1015A000003401400004004000080040000C0040EE
:1015B0000010004000140040004001400044014081
:1015C0000048014070B5154C40F22551204600F00E
:1015D00013F900280ED0204600F09CF9104AC1B241
:1015E000D088030406D444044FF0000306D50A292A
:1015F00001D0D38070BD40F400400DE00D2909D02A
:10160000C0F30D04074D401C80B22955D080C72877
:10161000EFD870BD40F48040D08070BD00380140EC
:10162000460000201A05002070B50A4C40F22555EE
:101630002946204600F0E0F800280AD02946204636
:1016400000F0CAF8204600F065F9BDE87040FFF7E9
:101650003DBC70BD0044004070B5054686B0012118
:101660000420FFF7A7FC01214804FFF797FC04249E
:10167000ADF8104003208DF8120018201D4E8DF893
:10168000130004A93046FFF74BF90820ADF810000D
:101690008DF8134004A93046FFF742F926208DF853
:1016A000140007208DF8150000248DF81640012045
:1016B0008DF8170005A8FFF7A5FAADF80440ADF8BE
:1016C0000640ADF80840ADF80C400C200A4CADF8CF
:1016D0000A0000956946204600F0C6F8012240F253
:1016E0002551204600F0A7F80121204600F07AF8A5
:1016F00006B070BD000801400044004070B50B4CBE
:1017000040F225552946204600F076F800280BD0F7
:101710002946204600F060F8204600F0FBF8BDE8BE
:101720007040C0B2FFF7F0BC70BD00000048004040
:1017300030B5054687B001210820FFF73BFC0121A9
:101740008804FFF72BFC4FF48060ADF810000320F5
:101750008DF8120018201E4C8DF8130004A92046A5
:10176000FFF7DEF8E114ADF8101004208DF8130037
:1017700004A92046FFF7D4F827208DF8140007208D
:101780008DF8150000248DF8164001208DF8170003
:1017900005A8FFF737FAADF80440ADF80640ADF8FC
:1017A0000840ADF80C400C200A4CADF80A0000953A
:1017B0006946204600F058F8012240F225512046A3
:1017C00000F039F80121204600F00CF807B030BDD8
:1017D000000C0140004800400A0A01219140C94321
:1017E000018070470029818902D041F4005101E055
:1017F00021F400518181704770B501F01F05012669
:101800000024C1F3421306FA05F2012B0FD0022B7C
:101810000FD0838A4FEA11210088134206FA01F69D
:1018200000EA060001D000B10124204670BD838982
:10183000F0E7038AEEE710B5C1F3421301F01F048D
:101840000121A140012B07D0022B07D01430002A20
:10185000026805D00A4304E00C30F8E71030F6E7E0
:101860008A43026010BD000030B50446008A85B08E
:101870000D464CF6FF710840E98801432182A0899A
:101880004EF6F3110840A9882A8911436A89024358
:101890001143A181A08A4FF6FF410840A989014365
:1018A000A1826846FFF792FB1948844201D1039850
:1018B00000E00298A189090400EBC00101EB0010CF
:1018C000296801D5490000E08900B0FBF1F06422ED
:1018D000B0FBF2F109010B096FF018056B4300EB47
:1018E0008300A3891D044FF0320306D503EBC0002B
:1018F000B0FBF2F000F0070005E003EB0010B0FBD6
:10190000F2F000F00F000843208105B030BD000068
:10191000003801408088C0F308007047FEE7303887
:101920000A2801D20120704700207047704700004C
:1019300010B50420FFF72CFC0C480D490D4A006837
:10194000B0FBF1F3B0FBF1F14FF47A704143137047
:10195000012050804FF0E020026942F00202026153
:101960004161016941F00101016110BD00000020E9
:1019700040420F004200002070B5044602F03AF8E1
:1019800001280DD00A4D6888844204D3B4FBF0F0DE
:1019900080B201F0F7F86888B4FBF0F100FB114465
:1019A0004FF47A706043BDE8704000F003B8000067
:1019B0004200002070B54FF0E02500216C69094A13
:1019C000AB6912785043AA699A42FCD002D2A3EBC9
:1019D000020302E0A4EB0206334419441346814299
:1019E000F1D370BD4200002004490A885206FCD59C
:1019F000024AC1B2121D1180704700000038014038
:101A00001CB507490120CDE900010023802205A172
:101A1000074801F0C3FFBDE81C4001F09BBA00007D
:101A20001C00002073746172745F7461736B00003A
:101A30005125000810B54FF44070FFF715F9FFF776
:101A400077FF4FF4E134204600F0B2FEFFF73AF89A
:101A5000FEF7C6FFFEF700FF002000F01FF8FEF7BC
:101A600025FF2046FFF7F8FD2046FFF761FE41F60F
:101A70001F416320FFF750F8FFF77AF9064C00206A
:101A8000FEF7CCFF2178012901D00328F7D1FFF719
:101A9000B7FF002010BD00004600002070B50446CE
:101AA0000B480C4E002150F8240006EB8405420040
:101AB000286900F02DF806480021103050F8242045
:101AC000A86800F025F801203119087670BD0000E3
:101AD000543F00087800002010B50B4B0B4C00223F
:101AE00053F82030114604EB800005E0046934F817
:101AF000114004B1521C491C8B42F7D86420424368
:101B0000B2FBF3F0C0B210BD543F000878000020D3
:101B100001E000F8011B521EFBD270472DE9F04195
:101B2000194E0F46044635887068001D00F092FE7D
:101B300038B9706890F82C100120884031698143D1
:101B40003161A4F57F40FF3807D137B17168BDE836
:101B5000F0410E48091D00F0C3BE281984B2706818
:101B6000AC428480716805D2F06BBDE8F041091D7C
:101B700000F09CBEB06B091D00F098FE7088844296
:101B800000D27480BDE8F08194000020105E002037
:101B90002DE9F041054600F0AFFE2D4EF068401CE7
:101BA000F06070682B4F10B1706930B32BE0756036
:101BB000F068012827D1002404EB840007EB8000A3
:101BC00000F066FE641C202CF6D3234800F060FE73
:101BD0002148143000F05CFE1F48283000F058FE09
:101BE0001D483C3000F054FE1B48503000F050FEC1
:101BF0001948B0631430F06305E07068E96AC06AA0
:101C0000884200D87560706A0121401C7062A86427
:101C1000E86A326981401143316100EB800007EBD3
:101C20008000291D00F05CFE00F0A2FE7069002813
:101C30000CD07068E96AC06A884207D207494FF041
:101C400080500860BFF34F8FBFF36F8FBDE8F08106
:101C500094000020405B0020C05D002004ED00E007
:101C600010B500F049FE0E4C6068A0B90D4800F0B8
:101C70000FFE0C48143000F00BFE0A48E0601430F0
:101C8000206100221021052001F0B6FB606010B138
:101C900005A100F043FFBDE8104000F069BE000060
:101CA000D4000020245E0020546D7251000000001A
:101CB00070B5124E124D1CE001F000FA306820B1F0
:101CC000002402F019F8A4B901E00124F9E700F0BA
:101CD00013FEF068C468201D00F0BCFDE868401EDB
:101CE000E860A868401EA86000F042FE204600F0B0
:101CF00052F8A8680028DFD170BD0000FC5D00200C
:101D00009400002030B4026C0B46002A0BD0C1684E
:101D10001144C1604468A14201D30168C16030BC74
:101D20001846FEF7FFBB30BC70472DE9F041856BCC
:101D3000174604460026026C82B1C7B1E068FEF780
:101D4000F1FBE168206C091AE1602268914202D23D
:101D50006168081AE060022F16D017E02068A8B961
:101D6000606801F0D7FE0646002060600EE0A068C3
:101D7000FEF7D8FB216CA0680844A0606168884227
:101D800004D32068A06001E005B16D1E6D1CA56341
:101D90003046BDE8F08110B50446006B00F01AFE35
:101DA0002046BDE8104000F015BE000010484FF47A
:101DB000A041420706D0C01D0D4920F00700411A7E
:101DC000C1F5A0410B4A00230144C2E900030839D0
:101DD000103A21F0070111604B600B600B1AC0E94B
:101DE000001393604FF000405360D06070470000D4
:101DF0004C5E0020F8000020074E4FF08054074D45
:101E0000FFF756FF30680128FAD92C60BFF34F8FD7
:101E1000BFF36F8FF4E70000405B002004ED00E0AB
:101E20002DE9F047DDE909840E4617468246910008
:101E30009946089DA522206BFEF7B9FB6FF00301C0
:101E4000206B01EB8701084420F00707780705D0D5
:101E500040F22B3219A11EA0FEF72EFA0020221804
:101E6000315C82F83410315C11B1401C1428F6D377
:101E7000002684F84760202D00D31F25E562C4E9C1
:101E80001456201D00F00FFD04F1180000F00BFDAA
:101E90002461C5F1200020836462A665E66584F8AC
:101EA00060604A465146384600F040FB2060B8F179
:101EB000000F01D0C8F80040BDE8F0872E2E5C4628
:101EC00072656552544F535C7461736B732E63007B
:101ED0004572726F723A25732C25640D0A0000005A
:101EE00030B5114900E011460A688242FBD34B68C5
:101EF0005C18844203D1406818444860084643682F
:101F00001C18944209D1084C103C2468A24209D004
:101F100052681A4442600A6812680260814200D026
:101F2000086030BD0460F9E7F800002070B50024B7
:101F300081800C4D0061914207D8D11A028B89B281
:101F4000914206D2011D286907E09A4203D29942C4
:101F500001D3012403E0011DE86800F0A7FC20463E
:101F600070BD0000D400002010B5044600F0C4FC91
:101F7000A06B20B1002400F0FBFC204610BD012422
:101F8000F9E700002DE9F34100980F460026846C24
:101F90002CB940F6CE1216A11AA0FEF78DF9A06B4F
:101FA000E16B884205D340F6CF1211A115A0FEF7D0
:101FB00083F9A06BE16B88420CD294F945503A4604
:101FC00069462046FFF7B1FE0646681C05D06D1C29
:101FD00084F845503046BDE8FC81606A0028F9D09D
:101FE00004F1240001F0F0FD0028F3D00126F1E710
:101FF0002E2E5C4672656552544F535C7175657543
:10200000652E63004572726F723A25732C25640D3C
:102010000A000000F8B5054614480E46C068C068BE
:10202000C468201D00F016FCE069012818D1208B3F
:102030002B46284481B232462046FFF777FF78B11D
:1020400000200346014600902A46204601F03AFF50
:1020500030B907494FF4027201F11800FEF72CF96C
:10206000616A01B02046BDE8F0400847D400002076
:10207000283E000870B586B0324E58E0019800281E
:1020800006DADDE90301029A9047019800284EDB49
:10209000039C606910B1201D00F0DCFB05A800F076
:1020A000ADF8054601980A2841D2DFE800F00505A1
:1020B00005402A3D0505402ABDF80830208B2A46F8
:1020C000184481B22046FFF731FF00282FD0616A03
:1020D00020468847E069012829D100200090BDF8FA
:1020E0000800218B0023084482B21946204601F0E3
:1020F000E9FEE0B940F2213213A119A0FEF7DCF8A5
:1021000015E0BDF80800208328B94FF44E720EA1E7
:1021100013A0FEF7D1F8208B2B46284481B21A4633
:102120002046FFF703FF02E0204600F053FC0023A7
:102130001A4601A9706801F09BF900289ED106B0EB
:1021400070BD0000D40000202E2E5C4672656552E2
:10215000544F535C74696D6572732E630000000008
:102160004572726F723A25732C25640D0A000000C7
:10217000F8B50D46064600F0A1FF684600F03EF8AF
:102180000446009810B101F0B7FDF8BD1148B5B193
:1021900001690968E1B10025311B89B22A4640680E
:1021A00000F0CEFC01F0A8FD0028EED10A494FF066
:1021B00080500860BFF34F8FBFF36F8FF8BDA6420A
:1021C000EAD801F099FD21463046FFF723FFF8BD1C
:1021D0000125E1E7D400002004ED00E00648816B12
:1021E000096829B1816BC968C968898841807047CD
:1021F0004FF6FF71FAE700009400002070B5054625
:1022000001F006FC064E04463088844203D200F0FA
:1022100009F8012000E0002028603480204670BDCD
:10222000D4000020F8B5194E27E0C068C4680588BE
:10223000201D00F00FFB616A20468847E0690128F5
:102240001BD1208B284480B2A84206D9A0802461EB
:10225000211DF06800F02AFB0FE000200346014634
:1022600000902A46204601F02DFE30B9084940F280
:10227000923201F11800FEF71FF8F068016800299A
:10228000D3D13169C6E90310F8BD0000D4000020A5
:10229000283E000808484068401C04D0F42207A1EA
:1022A00011A0FEF709F8502080F31188BFF34F8F7B
:1022B000BFF36F8FFEE70000000100202E2E5C466A
:1022C00072656552544F535C706F727461626C65D5
:1022D0005C525644535C41524D5F434D335C706FCA
:1022E00072742E63000000004572726F723A25739B
:1022F0002C25640D0A00000070B50025040005D1EE
:1023000040F2816207A10CA0FDF7D6FF0E4960697B
:10231000884205D1A06A2839884201D000B9012538
:10232000284670BD2E2E5C4672656552544F535C34
:102330007461736B732E63004572726F723A25730A
:102340002C25640D0A000000105E002003460020CA
:1023500012B1994302D070470B42FCD00120704764
:10236000084CE068016839B1002139B10020FFF75D
:10237000FFFEFFF77FFEF4E70121F6E7C068008863
:10238000F5E70000D40000202DE9F041044600F0FC
:10239000B3FA94F9455004F1240610E0A06C20B182
:1023A00000212046FFF7EEFD04E0606A48B13046A8
:1023B00001F00AFC08B100F081FC6D1E6DB2002D29
:1023C000ECDC4FF0FF3684F8456000F0D1FA00F005
:1023D00093FA94F9445004F1100709E0206948B1D8
:1023E000384601F0F1FB08B100F068FC6D1E6DB2DB
:1023F000002DF3DC84F84460BDE8F04100F0B8BA89
:102400002DE9F0410546002600F058FE324F3868AD
:1024100008B9FFF7CBFCF86805424FD1002D4DD02D
:10242000083568070BD005F00700C0F10800054427
:10243000680704D0BF2229A132A0FDF73DFF002D7F
:102440003CD07868854239D8234910310846046861
:1024500001E0214604466068A84202D220680028B4
:10246000F7D13868B846844228D00E6820680860E2
:1024700060680836401B10280ED96719780704D009
:10248000EC2216A11FA0FDF717FF6068401B7860C3
:1024900038466560FFF724FD6168D8F804004246BD
:1024A000401AC8F80400D8F80830984200D290606A
:1024B000D8F80C0001430020C4E9000101F01CFC25
:1024C000700705D04FF4967204A10EA0FDF7F4FE3C
:1024D0003046BDE8F0810000E80000202E2E5C466A
:1024E00072656552544F535C706F727461626C65B3
:1024F0005C4D656D4D616E675C686561705F342E23
:10250000630000004572726F723A25732C25640DCA
:102510000A0000000449486818B14868426D521C1E
:1025200042654868704700009400002010B5031F02
:102530004FF080741C601B1F21F001011960191FEE
:10254000024B0B60143940380A6010BD9522000818
:102550001CB500F0D1F903220021012000F04CFF4E
:10256000234CE06110B123A0FDF7A6FE274801230C
:1025700000901A46322126A001F030FC2060274846
:10258000009002230122642125A001F027FC606055
:1025900000F0EAFDA06110B124A0FDF78DFE144902
:1025A00002200C31CDE900010023802225A127481B
:1025B00001F0F4F90E4903201031CDE900010023A8
:1025C000802223A1244801F0E9F9094904201431AB
:1025D000CDE900010023802220A1224801F0DEF98C
:1025E000002000F005FBBDE81C4000F0C1B9000070
:1025F00014000020B6FED6B5D0C5BAC5C1BFB4B46C
:10260000BDA8B3C9B9A62121210D0A00AD27000834
:1026100035306D735F74696D657200009D27000829
:102620003130306D735F74696D657200CAC2BCFE73
:10263000B1EAD6BECEBBB4B4BDA8B3C9B9A6A3A1F6
:102640000D0A00007461736B3100000069260008F8
:102650007461736B32000000C12600087461736BF3
:10266000330000002927000808B501F0D1F9134C08
:102670004FF6FF750246009500230121206801F006
:1026800021FC01F0C5F90246009500230121606894
:1026900001F018FC00250095002301220F21A069FC
:1026A00000F0C8FDC00705D000231A461946E069AE
:1026B00000F0F8FF0A2000F065FAECE714000020B3
:1026C0000B4C4FF6FF7500232A461946E06900F0CF
:1026D000CFFE012809D007A0FDF7EEFD08A0FDF709
:1026E000EBFD0A2000F04EFAEDE709A0F4E7000048
:1026F00014000020D2D1B3ACCAB121210D0A0000D0
:10270000C8CECEF132C6F4B6AFA3A1A3A10D0A0084
:10271000B6FED6B5D0C5BAC5C1BFBBF1C8A1B3C955
:10272000B9A62121210D0A00124E134D0020FEF7FB
:1027300075F904463078012801D0012C08D10FA08A
:10274000FDF7BAFDE86800F051FC286900F04EFC86
:102750003078022801D0022C08D10CA0FDF7ACFD86
:10276000E86800F083FB286900F080FB0A2000F095
:1027700009FADBE74600002014000020B9D2C6F0B9
:102780007461736B312121210D0A0000BBD6B8B4EE
:102790007461736B312121210D0A0000024801216F
:1027A000806900F0EFBC00001400002070470000BA
:1027B00030B5054687B0012144F20400FEF7FAFB6C
:1027C0004FF40070ADF8100003208DF812001820AF
:1027D0001E4C8DF8130004A92046FEF7A1F8211520
:1027E000ADF8101004208DF8130004A92046FEF760
:1027F00097F825208DF8140007208DF81500002487
:102800008DF8164001208DF8170005A8FEF7FAF99B
:10281000ADF80440ADF80640ADF80840ADF80C4006
:102820000C200B4CADF80A00009569462046FFF7D6
:102830001BF8012240F225512046FEF7FCFF012142
:102840002046FEF7CFFF07B030BD00000008014072
:1028500000380140D0E9013201699A60D0E90123D2
:102860005A604A68824201D182684A60002202614D
:102870000868401E08607047044948684A68008B31
:10288000D26A4968C2F120020A837047940000208E
:1028900000F108014FF6FF7241600281C1600161E1
:1028A00000210160704700210161704730B50C883C
:1028B000A4F57F42FF3A02D000F1080202E002696B
:1028C00004E01A4653681D88A542FAD953684B6044
:1028D00099608A60516008610168491C016030BDDF
:1028E00042684A6093688B609368596091600861A0
:1028F0000168491C01607047502080F31188BFF3C4
:102900004F8FBFF36F8F09494868401C486001280A
:102910000AD10748006810F0FF0F05D04FF4BD72D0
:1029200004A10FA0FDF7C8BC704700000001002003
:1029300004ED00E02E2E5C4672656552544F535CE8
:10294000706F727461626C655C525644535C4152A4
:102950004D5F434D335C706F72742E630000000056
:102960004572726F723A25732C25640D0A000000BF
:1029700010B5084C606828B940F2811206A111A078
:10298000FDF79AFC6068401E606001D180F31188F9
:1029900010BD0000000100202E2E5C4672656552BD
:1029A000544F535C706F727461626C655C52564434
:1029B000535C41524D5F434D335C706F72742E63B4
:1029C000000000004572726F723A25732C25640D69
:1029D0000A00000070B500282AD0164DA0F10804A6
:1029E0006068E968084205D14FF4A07212A11CA0EA
:1029F000FDF762FC206828B140F241120EA118A038
:102A0000FDF75AFC6068E968084211D02268002A84
:102A10000ED18843606000F051FB6068696808442B
:102A200068602046FFF75CFABDE8704001F064B9C9
:102A300070BD0000E80000202E2E5C4672656552D5
:102A4000544F535C706F727461626C655C4D656D60
:102A50004D616E675C686561705F342E63000000D5
:102A60004572726F723A25732C25640D0A000000BE
:102A700006484FF47A710068B0FBF1F14FF0E020A6
:102A8000491E4161072101617047000000000020DC
:102A900010B5FDF7EBFB104C10280CD300F1E02033
:102AA00090F8F0032178884205D24FF42A720BA1E6
:102AB00015A0FDF701FC18480068A16800F4E0606B
:102AC000884207D9BDE810404FF42E7203A10EA032
:102AD000FDF7F2BB10BD0000000100202E2E5C4669
:102AE00072656552544F535C706F727461626C65AD
:102AF0005C525644535C41524D5F434D335C706FA2
:102B000072742E63000000004572726F723A257372
:102B10002C25640D0A0000000CED00E010B5074BF9
:102B2000002253F832401CB1521C082AF9D310BDC0
:102B300043F8321003EBC201486010BD005B002077
:102B400070B515460E460446FFF7D6FE94F94410BC
:102B50000020491C01D184F8440094F94510491C17
:102B600001D184F84500FFF703FFA06B28B92A467E
:102B7000314604F1240000F0D1F82046BDE8704051
:102B8000FFF702BC10B5040012D00E49C96A29B182
:102B900040F2CF420CA111A0FDF78EFB00F08EFA9F
:102BA00000212046FEF7BAFF01F0A6F8002807D161
:102BB0000E494FF080500860BFF34F8FBFF36F8F07
:102BC00010BD0000940000202E2E5C4672656552F8
:102BD000544F535C7461736B732E63004572726F54
:102BE000723A25732C25640D0A00000004ED00E004
:102BF00070B50446FFF780FE234D04B96C68201DB4
:102C0000FFF728FE58B9E06A204A00EB800152F82D
:102C1000211021B901218140286988432861A06AD7
:102C200018B104F11800FFF715FE686A401C6862CD
:102C30006868844207D1211D1548FFF751FEA86836
:102C4000401CA86007E0E868401EE8602046FFF7E7
:102C5000A2F8FFF7C3FAFFF78BFE6869002812D0CD
:102C6000686884420FD1E86A28B140F2654209A140
:102C70000DA0FDF721FB10494FF080500860BFF315
:102C80004F8FBFF36F8F70BD94000020405B00201A
:102C9000FC5D00202E2E5C4672656552544F535CDD
:102CA0007461736B732E63004572726F723A257391
:102CB0002C25640D0A00000004ED00E0014901200C
:102CC000C86170479400002070B50D46040005D11E
:102CD00040F6063207A10CA0FDF7EEFA0E48416857
:102CE00020461831FFF7E2FD2846BDE8704001217B
:102CF000FEF714BF2E2E5C4672656552544F535C2E
:102D00007461736B732E63004572726F723A257330
:102D10002C25640D0A0000009400002070B51446B4
:102D20000E46050005D140F6313209A10DA0FDF790
:102D3000C3FA1048416828461831FFF7D1FD0CB19D
:102D40004FF6FF7621463046BDE87040FEF7E6BEFE
:102D50002E2E5C4672656552544F535C7461736BE2
:102D6000732E63004572726F723A25732C25640DC1
:102D70000A000000940000202DE9F04117460E469D
:102D8000050005D140F617320DA112A0FDF794FA07
:102D9000144CE06A28B940F61B3209A10DA0FDF7DA
:102DA0008BFA616846F40040088361682846183150
:102DB000FFF796FD3846BDE8F0410121FEF7AEBEB3
:102DC0002E2E5C4672656552544F535C7461736B72
:102DD000732E63004572726F723A25732C25640D51
:102DE0000A0000009400002070B5040039D01D4D89
:102DF000E06A6968C96A884233D2208B000404D42F
:102E00006868C06AC0F120002083E06A164E00EBBB
:102E10008000616906EB800081421FD1201DFFF711
:102E200019FD012150B9E06A00EB800256F822201A
:102E300022B92A6901FA00F082432A616868C06AEF
:102E4000E0622A6981401143296100EB800006EBB2
:102E50008000211DBDE87040FFF742BD6868C06A70
:102E6000E06270BD94000020405B002070B504005B
:102E70002BD01A4D686884422FD0FFF73DFD2046C5
:102E8000FFF73AFAE8B1201DFFF7E4FCE06A012100
:102E90002A69814011432961114900EB800001EB4F
:102EA0008000211DFFF71CFDE06A6968C96A88423D
:102EB00007D30C494FF080500860BFF34F8FBFF32A
:102EC0006F8FBDE87040FFF753BDBDE8704040F222
:102ED000AB6205A109A0FDF7EFB970BD9400002019
:102EE000405B002004ED00E02E2E5C4672656552CA
:102EF000544F535C7461736B732E63004572726F31
:102F0000723A25732C25640D0A00000010B50400E8
:102F100005D140F6C13205A109A0FDF7CDF90C4855
:102F2000016A21600088A08010BD00002E2E5C4642
:102F300072656552544F535C7461736B732E6300FA
:102F40004572726F723A25732C25640D0A000000D9
:102F5000940000201CB518480024CDE90040234609
:102F6000822216A1174800F019FD012803D100F0B4
:102F70006FFF01280AD0401C1DD102B040F28472BC
:102F8000BDE8104010A115A0FDF796B9502080F3C0
:102F90001188BFF34F8FBFF36F8F07484FF6FF7154
:102FA00028384180012141610480FDF773FCBDE8B0
:102FB0001C4000F0CFB91CBDBC00002049444C456A
:102FC00000000000F91D00082E2E5C467265655257
:102FD000544F535C7461736B732E63004572726F50
:102FE000723A25732C25640D0A00000070B5044662
:102FF000FFF782FC244D04B96C68201DFFF72AFC02
:1030000058B9E06A214A00EB800152F8211021B939
:1030100001218140286988432861A06A18B104F120
:103020001800FFF717FC211D1948FFF759FCFFF79F
:103030009FFC686928B1FFF75FFCFFF7CFF8FFF747
:1030400097FC6868844211D1686980B1E86A28B148
:1030500040F257620FA114A0FDF72EF916494FF068
:1030600080500860BFF34F8FBFF36F8F70BD08486B
:10307000E9680068884202D10020686070BDBDE840
:10308000704000F023B8000094000020405B002056
:10309000105E00202E2E5C4672656552544F535CC4
:1030A0007461736B732E63004572726F723A25738D
:1030B0002C25640D0A00000004ED00E00248C16AFE
:1030C000491CC162704700009400002070B51A4C82
:1030D000E06A10B10120E06170BD0020E061174995
:1030E000086849686063226B904204D96168821A5B
:1030F0008B6D1A448A6520632069114EB0FA80F006
:10310000C0F11F0000EB800556F8250028B940F6F5
:10311000F6220CA110A0FDF7CFF806EB850000F118
:103120000802416849684160914201D149684160A3
:10313000C868606070BD0000940000203800002066
:10314000405B00202E2E5C4672656552544F535CE6
:103150007461736B732E63004572726F723A2573DC
:103160002C25640D0A00000010B51C20FFF748F95B
:10317000040004D000202080201DFFF789FB20469A
:1031800010BD00002DE9F04100258846040005D15E
:1031900040F21D221CA123A0FDF78EF85FEA182043
:1031A00005D040F21E2218A11EA0FDF785F8261DAD
:1031B00004F10C07FFF782FF2188F06841EA08015B
:1031C000218016E00188466801F47F425305238878
:1031D000C9B202D40B4203D10AE031EA030307D19A
:1031E000D20500D50D43218841F4007100F038FD6F
:1031F0003046B842E6D12088A843208000F07CFD0C
:103200002088BDE8F08100002E2E5C467265655274
:10321000544F535C6576656E745F67726F7570733B
:103220002E6300004572726F723A25732C25640D6F
:103230000A0000002DE9F047089F9A4691460D4686
:1032400004004FF0000605D140F24D1235A13CA01C
:10325000FDF732F8280A05D04FF4A77231A138A043
:10326000FDF72AF82DB940F24F122EA134A0FDF738
:1032700023F800F0BFFB30B92FB14FF4A97229A198
:103280002FA0FDF719F8FFF719FFB4F80080524698
:1032900029464046FFF75AF840B100274646B9F1A3
:1032A000000F15D02088A843208011E0AFB1B9F1FC
:1032B000000F01D04FF48076BAF1000F01D046F430
:1032C000806645EA06013A46201DFFF755FD0026B7
:1032D00000F012FD17B310B109E04646F8E71C49AB
:1032E0004FF080500860BFF34F8FBFF36F8FFFF731
:1032F000C3FA0646800510D4FFF7FEFA2688524628
:1033000029463046FFF722F828B1B9F1000F02D064
:103310002088A8432080FFF72BFBF6B23046BDE89B
:10332000F08700002E2E5C4672656552544F535C48
:103330006576656E745F67726F7570732E630000DB
:103340004572726F723A25732C25640D0A000000D5
:1033500004ED00E01CB51A4908780190FF200870C0
:1033600008788DF800009DF80000164A00F0500023
:1033700010700720906007E09068401E90609DF8F4
:10338000000040008DF800009DF800000006F3D416
:10339000107A000200F4E0609060019808700A481A
:1033A000016841F470010160016841F07041016001
:1033B000FFF75EFB00205060FCF722FF00201CBDE1
:1033C00000E400E00001002020ED00E010B55020F6
:1033D00080F31188BFF34F8FBFF36F8F00F024FB92
:1033E00018B104494FF080500860002080F3118824
:1033F00010BD000004ED00E02DE9F04117460E4637
:10340000050005D14FF4C47210A115A0FCF754FFBC
:10341000BEB105FB06F05430FEF7F2FF04000ED0FB
:1034200004F154007EB12060C4E90F56204601210A
:1034300000F0E4F884F8507000212046A164BDE853
:10344000F0810020E7E72460EEE700002E2E5C46C6
:1034500072656552544F535C71756575652E6300D6
:103460004572726F723A25732C25640D0A000000B4
:103470002DE9FF4F83B09B468A4604004FF00006BB
:1034800005D140F2DC4253A157A0FCF715FFBAF179
:10349000000F07D1206C28B140F2DD424DA152A0AF
:1034A000FCF70AFF00F0A6FA40B9BDF8140028B1F5
:1034B0004FF49C6247A14CA0FCF7FEFE4FF00009C0
:1034C0004FF08057DFF83081FFF716FAA56B45B350
:1034D00051462046E668FEF715FCBBF1000F13D0FD
:1034E000E660606A50B104F1240000F06DFB28B181
:1034F000C8F80070BFF34F8FBFF36F8FFFF738FA34
:10350000012007B0BDE8F08F6D1EA563206810B9DB
:10351000FFF700F8606020690028EFD004F1100088
:10352000E3E7BDF8140008B11EB106E0FFF720FA8A
:1035300027E06846FFF7EAFC0126FFF719FAFFF7D4
:10354000BDFDFFF7D9F994F94400401C01D184F87E
:10355000449094F94500401C01D184F84590FFF750
:1035600007FA05A9684600F0D3F9002820460AD0DA
:10357000FEF70AFF00F0C0FB2046FEF7F5FC00282E
:10358000A2D00020BDE7FEF7EFFCE0B1206830B923
:10359000FFF7B2F96068FFF727FCFFF7E9F9BDF81C
:1035A000141004F12400FFF78FFB2046FEF7ECFE19
:1035B00000F0A2FB002887D1C8F80070BFF34F8F3E
:1035C000BFF36F8F80E72046FEF7DEFE00F094FB2E
:1035D0007AE700002E2E5C4672656552544F535CAC
:1035E00071756575652E63004572726F723A257349
:1035F0002C25640D0A00000004ED00E070B50D46B6
:10360000040005D140F21B121CA121A0FCF754FEBE
:10361000FFF772F9D4E90F20216802FB0011616005
:103620000021A1632168A1600A46D4E90F01401E70
:1036300000FB0121E16021464FF0FF3001F8440F0B
:10364000487004F110004DB1FFF722F904F1240095
:10365000FFF71EF9FFF78CF9012070BD21690029E1
:10366000F8D000F0B1FA0028F4D00D494FF08050A6
:103670000860BFF34F8FBFF36F8FEBE72E2E5C46D2
:1036800072656552544F535C71756575652E6300A4
:103690004572726F723A25732C25640D0A00000082
:1036A00004ED00E02DE9FF4F83B099468B460400FE
:1036B0004FF0000605D140F2D92253A157A0FCF7E4
:1036C000FBFDBBF1000F07D1206C28B140F2DA22DC
:1036D0004DA152A0FCF7F0FDB9F1020F08D1E06B4B
:1036E000012805D040F2DB2247A14CA0FCF7E4FD05
:1036F00000F080F940B9BDF8140028B140F2DE2294
:1037000041A146A0FCF7D8FD4FF0000A4FF08057CA
:10371000DFF81881FFF7F0F8A06BE16B884207D360
:10372000B9F1020F04D0BDF8140000B316B325E0C0
:103730004A4659462046FEF7F8FAA16C21B149469F
:103740002046FEF71FFC05E0616A19B104F1240070
:1037500000F03AFA28B1C8F80070BFF34F8FBFF3FA
:103760006F8FFFF705F9012007B0BDE8F08FFFF775
:10377000FFF821E06846FFF7C9FB0126FFF7F8F8DC
:10378000FFF79CFCFFF7B8F894F94400401C01D106
:1037900084F844A094F94500401C01D184F845A068
:1037A000FFF7E6F805A9684600F0B2F830B1204608
:1037B000FEF7EAFD00F0A0FA0020D5E7FFF79CF83D
:1037C000A06BE16B884201D1012500E00025FFF7E5
:1037D000CFF89DB1BDF8141004F11000FFF774FA92
:1037E0002046FEF7D1FD00F087FA002892D1C8F8F4
:1037F0000070BFF34F8FBFF36F8F8BE72046FEF74C
:10380000C3FD00F079FA85E72E2E5C46726565529D
:10381000544F535C71756575652E63004572726F08
:10382000723A25732C25640D0A00000004ED00E0B7
:103830002DE9F047984615468946040005D140F227
:103840009F322AA12EA0FCF737FDB9F1000F07D156
:10385000206C28B14FF4687224A129A0FCF72CFD3C
:10386000B8F1020F08D1E06B012805D040F2A13277
:103870001EA123A0FCF720FDFFF70AF95020EFF36B
:10388000118780F31188BFF34F8FBFF36F8FA06B49
:10389000E16B884207D3B8F1020F04D0002087F310
:1038A0001188BDE8F08794F94560424649462046B4
:1038B000FEF73BFA701C04D0761C84F845600120AA
:1038C000EDE7A06C012620B141462046FEF75AFBE9
:1038D00006E0606A0028F2D004F1240000F074F9D8
:1038E0000028ECD0002DEAD02E60E8E72E2E5C46B2
:1038F00072656552544F535C71756575652E630032
:103900004572726F723A25732C25640D0A0000000F
:1039100070B50D46040005D140F6CB3215A11AA0B2
:10392000FCF7CAFC2DB940F6CC3212A116A0FCF768
:10393000C3FCFEF7E1FF184A10882988A1F57F43F0
:10394000FF3B10D02368126A934202D0A2888242C1
:103950000BD9A288801A82B28A4206D2081A28801D
:103960002046FFF7D3FA002400E00124FFF700F817
:10397000204670BD2E2E5C4672656552544F535CD6
:103980007461736B732E63004572726F723A2573A4
:103990002C25640D0A000000940000202DE9FF5F33
:1039A0008346DDE90E87994616468A469000FEF763
:1039B00027FD05001AD06420FEF722FD040012D076
:1039C00025630021CDE90241CDE900874B4632460F
:1039D00051465846FEF724FA2046FEF7D9F8012052
:1039E00004B0BDE8F09F2846FEF7F4FF4FF0FF302B
:1039F000F6E700000548416919B1C06A18B1002016
:103A0000704701207047022070470000940000209A
:103A100010B5FEF771FF03480488FEF7A9FF2046A2
:103A200010BD0000940000202DE9F0412E4F00262B
:103A3000F86A40B1B869401CB861F86900B1012664
:103A40003046BDE8F0813888401C05042D0C3D80CF
:103A500011D1B86B006828B140F6D91223A128A073
:103A6000FCF72AFCB86BF96BB963F863386A401C41
:103A70003862FEF7B3FB7888DFF89480854209D37B
:103A8000B86B006880B1B86BC068C468A088854214
:103A90000DD278807868C06A00EB800158F8210068
:103AA0000128CAD90126C8E74FF6FF70F1E7201DAB
:103AB000FEF7D0FEA06A18B104F11800FEF7CAFEA6
:103AC000E06A01213A6981401143396100EB8001CC
:103AD00008EB8100211DFEF703FFE06A7968C96ADF
:103AE0008842CDD30126CBE7940000202E2E5C46E1
:103AF00072656552544F535C7461736B732E63002F
:103B00004572726F723A25732C25640D0A0000000D
:103B1000405B002070B504004FF000063CD01F4D04
:103B20006868844205D040F6C7621DA121A0FCF759
:103B3000C3FB606D28B940F6C96219A11DA0FCF74E
:103B4000BBFB606D401E6065226DE16A914223D02F
:103B500010BB201DFEF77EFE1A49012250B9E06A13
:103B600000EB800351F8233023B92B6902FA00F0EF
:103B700083432B61206DE062C0F120002083E06A66
:103B80002B6982401A432A6100EB800001EB800020
:103B9000211DFEF7A5FE0126304670BD94000020D1
:103BA0002E2E5C4672656552544F535C7461736B84
:103BB000732E63004572726F723A25732C25640D63
:103BC0000A000000405B00202DE9F041C068C46895
:103BD0002CB940F6613216A11AA0FCF76DFB04F176
:103BE00018000746FEF736FE1A4DE86A012660B156
:103BF00039461948FEF774FEE06A6968C96A884266
:103C000013D90120EE61BDE8F081201DFEF722FEF0
:103C1000E06A2A6906FA00F1114329610F4900EBB5
:103C2000800001EB8000211DE4E70020EBE70000AD
:103C30002E2E5C4672656552544F535C7461736BF3
:103C4000732E63004572726F723A25732C25640DD2
:103C50000A00000094000020E85D0020405B002086
:103C600070B51A4D06460C46E86A28B940F69932F6
:103C700017A11CA0FCF720FB44F400403080F4683E
:103C80002CB940F6A13212A116A0FCF715FB304664
:103C9000FEF7E0FD201DFEF7DDFDE06A01262A6942
:103CA00006FA00F111432961124900EB800001EB93
:103CB0008000211DFEF714FEE06A6968C96A884227
:103CC00002D90120EE6170BD002070BD940000207B
:103CD0002E2E5C4672656552544F535C7461736B53
:103CE000732E63004572726F723A25732C25640D32
:103CF0000A000000405B00202DE9F0472B4D002416
:103D00002746E86A28B94FF4FD6229A12DA0FCF7E7
:103D1000D3FAFEF7F1FDE86A401EE862E86AE8BB04
:103D2000E8682C490126C8B3A1F52A798846D8F855
:103D30000010E9B1D8F80C00C46804F11800FEF7CF
:103D400089FD201DFEF786FDE06A2A6906FA00F16A
:103D50001143296100EB800109EB8100211DFEF771
:103D6000BFFDE06A6968C96A8842E0D3EE61DEE7B8
:103D70000CB1FEF733FAAC693CB1FFF755FE00B168
:103D8000EE61641EF9D10020A861E86930B11249E2
:103D9000012738070860BFF34F8F00E001E0BFF351
:103DA0006F8FFEF7E5FD3846BDE8F08794000020F0
:103DB0002E2E5C4672656552544F535C7461736B72
:103DC000732E63004572726F723A25732C25640D51
:103DD0000A000000E85D002004ED00E02DE9F04756
:103DE0000746994616460D462C20DDF820A0FEF722
:103DF00007FB040015D0B8464F46D1462DB94FF405
:103E0000C67209A10EA0FCF757FAFDF729FFC4F806
:103E1000008004F11C01258381E8C002201DFEF70B
:103E200042FD2046BDE8F0872E2E5C467265655245
:103E3000544F535C74696D6572732E63000000000B
:103E40004572726F723A25732C25640D0A000000CA
:103E50001CB50024FDF704FF0C48406868B10B490D
:103E60001F200831CDE9000100234FF4827208A120
:103E70000948FFF793FD040005D140F2331207A172
:103E80000CA0FCF719FA20461CBD0000D40000204D
:103E9000546D722053766300612300082E2E5C4619
:103EA00072656552544F535C74696D6572732E630D
:103EB000000000004572726F723A25732C25640D64
:103EC0000A0000002DE9FF47DDF830A09946904632
:103ED0000D4606004FF0000705D14FF4D37212A132
:103EE00017A0FCF7E9F91A4C606888B10095ADF8A5
:103EF00004800296062D11DAFFF77CFD02284FF0B0
:103F0000000309D0002269466068FFF7CBFB074633
:103F100004B03846BDE8F0875246F4E700234A462D
:103F20006946FFF785FCF2E72E2E5C467265655206
:103F3000544F535C74696D6572732E63000000000A
:103F40004572726F723A25732C25640D0A000000C9
:103F5000D4000020800200000100000020000000CA
:103F600020000000005000002000000004000008B5
:103F7000000000000000000200010000100000002E
:103F8000A03F0008000000200C0100006C010008A8
:103F9000AC4000080C010020A4B300008801000818
:103FA00000A24A0400000000000000000102030417
:103FB00006070809000000000000000000000000E3
:103FC00000000000000000000000000000000000F1
:103FD00000000000000000000000000000000000E1
:103FE00001000000000000000000000000000000D0
:103FF00000000000000000000000000000000000C1
:104000000000000002040608000000000102030492
:1040100001020304060708099D1A0008D91A0008BE
:104020000006002000000068005600202000006804
:104030000000000000000000000000000000000080
:104040000000000000000000000000000000000070
:104050000000000000000000000000000000000060
:104060000000000000000000000000000000000050
:104070000000000000000000000000000000000040
:104080000000000000000000000000000000000030
:104090000000000000000000000000000000000020
:0C40A00000000000AAAAAAAA000000006C
:040000050800027578
:00000001FF
